:100000000C9463000C948B000C948B000C948B006C
:100010000C948B000C948B000C948B000C948B0034
:100020000C948B000C948B000C948B000C948B0024
:100030000C948B000C948B000C948B000C948B0014
:100040000C9420120C948B000C9421150C945315D5
:100050000C948B000C948B000C948B000C948B00F4
:100060000C948B000C948B0000000008000201002F
:100070000003040700000000000000000102040863
:100080001020408001020408102001020408102002
:10009000040404040404040402020202020203032E
:1000A00003030303000000002300260029000000D2
:1000B0000000250028002B0000000000240027007D
:1000C0002A008D00831511241FBECFEFD8E0DEBFBC
:1000D000CDBF12E0A0E0B1E0EAE7F4E302C0059092
:1000E0000D92A436B107D9F724E0A4E6B2E001C02E
:1000F0001D92AC31B207E1F710E0C6ECD0E004C0CD
:100100002297FE010E94231AC23CD107C9F70E9420
:10011000C7150C943B1A0C940000AF92CF92EF924B
:100120000F931F932CE04BE06DE081E793E00E947A
:10013000FF0586E0A82E97E0C92E25E0E22E08E014
:1001400024E049E063E089E593E00E940B038BE241
:1001500093E00E94AB0A0BE213E029E533E041E7AC
:1001600053E062E082EA92E00E940C0A6EE08BE8C3
:1001700092E00E946C1140E061E18EE792E00E9403
:100180003F1140E060E181E792E00E943F1140E0D2
:100190006FE084E692E01F910F91EF90CF90AF90C7
:1001A0000C943F1120E042E060E189E593E00E9479
:1001B0006D0289E593E00E944C0240E060E089E531
:1001C00093E00E94530268E071E089E593E00E94A9
:1001D000141641E060E089E593E00E94530269E172
:1001E00071E089E593E00E94141626E040E052ECAD
:1001F00061E070E08FE793E00E94BF146AE271E073
:100200008FE793E00E94211648EE53E060E070E033
:100210008BE892E00E948C1182EA92E00E94090B26
:100220008BE293E00C942C0D0F931F938BE892E0DC
:100230000E94CA1182EA92E00E94E10B8BE293E0F5
:100240000E94300C882309F46FC08BE293E00E9477
:1002500002088230910571F08330910599F0019781
:10026000A9F548EC50E060E070E08BE892E00E9475
:100270008C112CC048EB5BE060E070E08BE892E012
:100280000E948C1108EB1BE020E030E040E157E2D7
:1002900060E070E08BE892E00E940D1181E792E04F
:1002A0000E94F211811109C08BE892E00E94CA11EC
:1002B00082EA92E00E94E10BF1CF8BE892E00E948B
:1002C0005B1182EA92E00E94E10BFBCF8BE293E0AC
:1002D0000E94FE07069741F504EF11E020E030E0B0
:1002E00048EB5BE060E070E08BE892E00E940D116B
:1002F0008BE892E00E94BA1181E792E00E94F2112D
:10030000811109C08BE892E00E94CA1182EA92E052
:100310000E94E10BF1CF8BE892E00E945B1182EA30
:1003200092E00E94E10BFBCF8EE792E00E94F21177
:10033000882321F082EA92E00E94BD0B84E692E0DD
:100340000E94F211882321F082EA92E00E94990B28
:1003500081E792E00E94F211882331F082EA92E074
:100360001F910F910C941C0C1F910F910895CF9326
:10037000DF93EC0160E08E810E947B1381E090E0CE
:100380000E94D31261E08E810E947B1381E090E095
:100390000E94D31260E08E810E947B1384E690E07D
:1003A000DF91CF910C94D312EF92FF920F931F9392
:1003B000CF93DF938C01C0E0D0E0E62EF12CB701A3
:1003C0000C2E02C0759567950A94E2F76170F801EA
:1003D000EC0FFD1F87810E947B132196C430D1054D
:1003E00071F7C801DF91CF911F910F91FF90EF90AE
:1003F0000C94B701EF92FF920F931F93CF93DF936B
:100400008C01C0E0D0E0E62EF12CB7010C2E02C02A
:10041000759567950A94E2F76170F801EC0FFD1F7E
:1004200087810E947B132196C830D10571F7C801DE
:10043000DF91CF911F910F91FF90EF900C94B70136
:100440001F93CF93DF93EC01162F642F8C810E94B2
:100450007B138D818F3F19F060E00E947B138F85A5
:10046000612F84FF06C0CE01DF91CF911F910C94C4
:10047000FA0170E084E0759567958A95E1F7CE0101
:100480000E94D401612FCE01DF91CF911F910C9476
:10049000D40140E00C94200261E00E94490280ED0A
:1004A00097E00C94D312443008F043E0FC01238918
:1004B000421710F04FEF420FFC01E40FF11D2489A9
:1004C000260F2068622F0C944902FC016089262FB8
:1004D0002460208B6C600C9449020F931F93CF9380
:1004E000DF93EC01423018F08F8588608F874B8B4B
:1004F0001C8A80E48D8B6E8B70E0605C7F4F6F8B0D
:10050000222329F0413019F48F8584608F8761E0C0
:100510008C810E9442138D818F3F19F061E00E940F
:10052000421361E08E810E94421300E010E08F854B
:1005300084FF03C088E090E002C084E090E00817E8
:10054000190754F4FE01E00FF11F61E087810E945A
:1005500042130F5F1F4FEBCF80E593EC0E94D31245
:1005600060E08C810E947B1360E08E810E947B138F
:100570008D818F3F19F060E00E947B136F8564FDD1
:100580001DC063E0CE010E94D40184E991E10E9484
:10059000D31263E0CE010E94D40184E991E10E946C
:1005A000D31263E0CE010E94D40186E990E00E945C
:1005B000D31262E0CE010E94D40116C06062CE0167
:1005C0000E94490284E991E10E94D3126F85606222
:1005D000CE010E94490286E990E00E94D3126F8505
:1005E0006062CE010E9449026F856062CE010E9466
:1005F000490284E0888BCE010E946502CE010E94F0
:100600004C0282E0898B66E0CE01DF91CF911F9191
:100610000F910C944902AF92CF92EF920F93FC018D
:100620001382128284E391E0918380836483458303
:1006300026830783E086C186A286138614861586E4
:100640001686178620E041E060E1CF010F91EF9020
:10065000CF90AF900C946D0241E00E94200281E0A7
:1006600090E00895CF93DF93EC01842F68834A8351
:10067000298361E00E94421361E088810E94421355
:1006800060E089810E94421361E08A81DF91CF910D
:100690000C947B13DF92EF92FF920F931F93CF93F3
:1006A000DF938C01D12CC7E0D0E0EE24E394F12C51
:1006B00060E0F80180810E947B138FE99FE0019741
:1006C000F1F700C00000F80181810E94B113892B6D
:1006D00039F097010C2E01C0220F0A94EAF7D22AB2
:1006E00061E0F80180810E947B138FE99FE0019710
:1006F000F1F700C000002197D8F68D2DDF91CF9142
:100700001F910F91FF90EF90DF9008950F931F932B
:10071000CF93DF93EC0160E08A810E947B138FE925
:100720009FE00197F1F700C00000CE010E944A034C
:10073000082F10E0102F0027CE010E944A03082B3B
:1007400061E08A810E947B1302FD11C0B80193E031
:10075000769567959A95E1F780E090E00E94D7182A
:1007600020E030E040E85EE30E948D1904C060E0C4
:1007700070E080EC9FE7DF91CF911F910F9108957A
:10078000CF93DF93EC01FC01EE5BFF4F8081918101
:10079000DC01ED91FC910190F081E02D0995AB0118
:1007A000BC01FE01EC5BFF4F408351836283738386
:1007B000C05BDF4F88819981DC01ED91FC91028063
:1007C000F381E02DDF91CF9109940F931F93CF9385
:1007D000DF93EC018C01005B1F4FD8018D919C9140
:1007E000DC01ED91FC910480F581E02D09958130CB
:1007F000910551F18230910571F1892BF1F5FE01DE
:10080000E45BFF4F80819181019769F081E090E086
:10081000918380838C859D85DC01ED91FC91028024
:10082000F381E02D0995F80180819181DC01ED9142
:10083000FC910190F081E02D0995C85BDF4F688342
:1008400079838A839B8319C0E881F9810480F581CB
:10085000E02DCE010DC0FE01E45BFF4F918380834C
:100860008C859D85DC01ED91FC910480F581E02D66
:10087000DF91CF911F910F910994DF91CF911F913B
:100880000F9108950F931F93CF93DF9300D000D063
:10089000CDB7DEB78C0149835A836B837C830E947A
:1008A000C00349815A816B817C81C80102960E94F4
:1008B0007110F801E45BFF4F82E090E09183808348
:1008C0000F900F900F900F90DF91CF911F910F918C
:1008D0000895CF93DF93EC010E946A12AB01BC0133
:1008E000CE01DF91CF910C944204EF92FF920F93CF
:1008F0001F93CF93DF93EC0102960E94DD108111CC
:1009000002C080E03FC08E01025B1F4FD8011D92E4
:100910001C92CE010E94E5037E01BCE4EB0EF11CAB
:10092000F70180819181892B61F3CE010E94C00380
:10093000D7018D919C91029711F481E023C0CE01E3
:100940000E960E94750D8C859D85DC01ED91FC91C4
:10095000EE96488159816A817B810190F081E02D7A
:10096000099520E030E04AE754E4688179818A8182
:100970009B810E943A188111E0CF81E090E0F8015C
:1009800091838083DF91CF911F910F91FF90EF9022
:100990000895CF93DF93EC018C859D85DC01ED916B
:1009A000FC910480F581E02D0995CE0102960E940C
:1009B0007E10C45BDF4F19821882DF91CF910895BA
:1009C0002F923F924F925F926F927F928F929F925F
:1009D000AF92BF92CF92DF92EF92FF920F931F934D
:1009E000CF93DF93CDB7DEB72C970FB6F894DEBF69
:1009F0000FBECDBF4C011B015E834D8338872F8313
:100A0000E986FA860B871C8719A10AA1FBA0ECA036
:100A10004DA05EA06FA078A48CE391E0F4018193D7
:100A20009193FA83E983CF010E94FC10F40135868B
:100A300024861401FEE02F0E311C9401285B3F4FE9
:100A4000A401425C5F4FC4018C5B9F4F9C838B83EE
:100A500083E48F938AEF8F931F921F92EF92FF92FE
:100A60000F931F93E984FA840B851C856B817C812D
:100A7000C1010E943410F401EE5BFF4F8D819E8115
:100A8000918380833E968F81988591838083EB81CB
:100A9000FC811082118212821382C301B2010E9472
:100AA000AB18AB01BC0189819A810E94871000E0DC
:100AB00010E02AE734E440E050E0BA01C1010E94AE
:100AC0002D0FC301B2010E94A618C1010E94E60FBA
:100AD000F401E25BFF4F118210820FB6F894DEBF83
:100AE0000FBECDBFC4012C960FB6F894DEBF0FBE6B
:100AF000CDBFDF91CF911F910F91FF90EF90DF90CD
:100B0000CF90BF90AF909F908F907F906F905F90AD
:100B10004F903F902F900C94C90402960C948D1026
:100B2000CF93DF93EC01CB01BA0120E030E040E04D
:100B30005FE30E948D190E94AB186BA37CA38DA369
:100B40009EA3DF91CF910895FC0164817581868118
:100B500097810895FC0184A595A50895CF92DF9211
:100B6000EF92FF92CF93DF93EC016A017B0128851E
:100B700039854A855B85C701B6010E943A1887FF0F
:100B800004C0C886D986EA86FB8620E030E04CE0C7
:100B900053E4C701B6010E948919181624F482E0B3
:100BA00090E09BA78AA7DF91CF91FF90EF90DF9015
:100BB000CF9008950F931F93CF93DF93EC0122966C
:100BC000CE010E94860305E010E09B01AC010E946B
:100BD000F019882369F00150110951F064E670E0C2
:100BE00080E090E00E949912CE010E948603EDCF32
:100BF000CE01DF91CF911F910F910C948603E0ED10
:100C0000F1E0DC01ED93FD93CD010C9432030F93E1
:100C10001F93CF93DF938C01EC01C25ADF4F888181
:100C200099810E944C0240E060E0888199810E9495
:100C3000530264E471E0888199810E941416F801DE
:100C4000E957FF4F0190F081E02D20A531A5243018
:100C50003105B1F04CF42230310579F02330310503
:100C600041F566E571E021C025303105E1F026301F
:100C70003105F9F46CE671E018C06EE471E002C071
:100C80006EE571E0888199810E94141688819981AE
:100C9000DC01ED91FC910190F081E02D6FED099563
:100CA00064E571E002C064E671E0888199810E9488
:100CB000141641E060E0888199810E94530264E744
:100CC00071E0888199810E941416F801FE96408196
:100CD00051816281738122E030E088819981DF91C6
:100CE000CF911F910F910C94D2170F931F93CF9315
:100CF000DF938C01EC01C25ADF4F888199810E94F9
:100D00004C0240E060E0888199810E9453026EE7C6
:100D100071E0888199810E94141641E060E0888129
:100D200099810E94530264E871E0888199810E9450
:100D30001416F801E957FF4F0190F081E02D62A5EC
:100D400073A54AE050E088819981DF91CF911F918E
:100D50000F910C94CC168F929F92AF92BF92CF922C
:100D6000DF92EF92FF920F931F93CF93DF93EC01EB
:100D70004A015B01CB01BA010E94AB186B017C01F7
:100D80008B0120E030E040E251E4C501B4010E9453
:100D90008D190E94AB184AE04C9D90014D9D300D7D
:100DA00011245B01A21AB30AC25ADF4F043611059F
:100DB00078F40A30110530F060E3888199810E944F
:100DC000161606C061E971E0888199810E941416A7
:100DD0004AE050E0B601888199810E94E1166EE2F6
:100DE000888199810E9416164AE050E0B5018881F9
:100DF0009981DF91CF911F910F91FF90EF90DF903C
:100E0000CF90BF90AF909F908F900C94E1160F936E
:100E10001F93CF93DF938C01EC01C25ADF4F88817F
:100E200099810E944C0240E060E0888199810E9493
:100E3000530264E971E0888199810E941416F801D7
:100E4000EC5BFF4F4081518162817381C8010E9438
:100E5000AB0688819981DC01ED91FC910190F081D4
:100E6000E02D6FED099564E571E0888199810E941C
:100E7000141641E060E0888199810E9453026BE979
:100E800071E0888199810E941416F801E85BFF4F98
:100E90004081518162817381C8010E94AB068881C3
:100EA0009981DC01ED91FC910190F081E02D6FEDD5
:100EB000099564E571E088819981DF91CF911F9157
:100EC0000F910C9414164F925F926F927F928F92B3
:100ED0009F92AF92BF92CF92DF92EF92FF92CF9309
:100EE000DF93EC01CB01BA0128EE33E040E050E0A3
:100EF0000E94F41949015A01CA01B90120E13EE0FA
:100F000040E050E00E94F41929013A01C501B40102
:100F10002CE330E040E050E00E94F41969017A01CE
:100F2000ACE3B0E0A30192010E94161AC61AD70AD8
:100F3000E80AF90AA0E1BEE00E94161A861A970A8A
:100F4000A80AB90AACE3B0E0A70196010E94161AFC
:100F5000861A970AA80AB90AC25ADF4F2AE030E077
:100F6000B301A201888199810E94D4166AE3888125
:100F700099810E941616888199812AE0C216D104AF
:100F8000E104F10428F02AE030E0B701A60109C02D
:100F900060E30E9416162AE030E0B701A6018881BE
:100FA00099810E94D4166AE3888199810E9416165D
:100FB000888199812AE082169104A104B10428F065
:100FC0002AE030E0B501A40109C060E30E941616D2
:100FD0002AE030E0B501A40188819981DF91CF91A9
:100FE000FF90EF90DF90CF90BF90AF909F908F9049
:100FF0007F906F905F904F900C94D416FC0180A569
:1010000091A50895FC0182A593A508950F931F93C0
:10101000CF93DF93EC010E946A120C851D852E850B
:101020003F85601B710B820B930BDF91CF911F915A
:101030000F910895CF92DF92EF92FF92FC01C0884A
:10104000D188E288F3880E946A12A7019601261BC4
:10105000370B480B590BCA01B901FF90EF90DF9095
:10106000CF900895EF92FF920F931F93CF93DF934A
:10107000EC018C01025A1F4FF801808191810E947E
:101080004C0240E060E0F801808191810E945302AF
:1010900064EA71E0F801808191810E9414167E015A
:1010A000F7E8EF0EF11CF701808191810E9406089C
:1010B000AB01BC01CE010E94630741E060E0F80192
:1010C000808191810E9453026EEA71E0F801808173
:1010D00091810E941416F701808191810E941A0863
:1010E000AB01BC01CE01DF91CF911F910F91FF9019
:1010F000EF900C946307CF92DF92EF92FF920F93E1
:101100001F93CF93DF93EC017C018EE5E80EF11C79
:10111000D7018D919C910E944C0240E060E0F70164
:10112000808191810E94530268EB71E0D7018D911B
:101130009C910E941416FE01EC5BFF4F408151818F
:1011400062817381CE010E94AB06F701808191819B
:10115000DC01ED91FC910190F081E02D6FED09959E
:1011600064E571E0F701808191810E94141641E0ED
:1011700060E0D7018D919C910E94530262EC71E076
:10118000F701808191810E9414168E0109571F4F2B
:10119000D8018D919C910E9406086B017C01F80199
:1011A000808191810E941A08AB01BC014C0D5D1D2C
:1011B0006E1D7F1DCE01DF91CF911F910F91FF908A
:1011C000EF90DF90CF900C946307FC01EE5AFF4F35
:1011D000208131812230310599F03CF4211531050F
:1011E00059F02130310551F008952330310551F087
:1011F0002430310549F008950C9407070C94320807
:101200000C9407060C947B080C9475068F929F92A1
:10121000AF92BF92CF92DF92EF92FF92CF93DF9384
:10122000EC010E946A124B015C0188A599A58230ED
:10123000910549F4C0900401D0900501E0900601A9
:10124000F090070103C0C12CD12C7601059764F4FE
:101250008091000190910101A0910201B0910301E0
:10126000C80ED91EEA1EFB1E2C813D814E815F8176
:1012700060E070E083E093E40E94D51720E030E660
:101280004AEE56E40E948D190E94AB186C0D7D1D2C
:101290008E1D9F1D693126E2720725E7820725E131
:1012A000920720F068E176E285E795E1AB01BC01A9
:1012B000480D591D6A1D7B1D488B598B6A8B7B8B92
:1012C000DF91CF91FF90EF90DF90CF90BF90AF90E4
:1012D0009F908F9008958F929F92AF92BF92CF92DE
:1012E000DF92EF92FF92CF93DF93EC0129E838E889
:1012F00048E05DE36C817D818E819F810E94D617DD
:101300004B015C016C837D838E839F8320E030E002
:1013100040E85FE3688579858A859B850E94D617BA
:101320006B017C019B01AC01C501B4010E948919CC
:1013300018165CF481E090E09BA78AA7CC82DD823E
:10134000EE82FF82CE010E9406098C819D81AE81D2
:10135000BF8188879987AA87BB87DF91CF91FF904C
:10136000EF90DF90CF90BF90AF909F908F900895B7
:10137000BF92CF92DF92EF92FF920F931F93CF9382
:10138000DF93EC01B62E26ED31E03983288324EE7D
:1013900031E03B832A837C0185E0E80EF11CC70124
:1013A0000E94FC106E018FE0C80ED11CC6010E9485
:1013B000FC108E01075E1F4FC8010E94FC10BC820A
:1013C00061E08B2D0E94421360E08C810E947B13B0
:1013D00048EE53E060E070E0C7010E9487101BA256
:1013E0001CA21DA21EA244E150E060E070E0C80112
:1013F0000E948710C7010E947E10C8010E947E10C3
:10140000C601DF91CF911F910F91FF90EF90DF9078
:10141000CF90BF900C947E105F926F927F928F92CC
:101420009F92AF92BF92CF92DF92EF92FF920F9373
:101430001F93CF93DF93EC01562E39014801BC0175
:101440006E597F4F24E42F932AE72F931F921F9208
:101450001F921F921F921F92A12CB12C80EAC82EBE
:1014600080E4D82EE12CF12C0AEF13E49401CE0194
:101470000E94E0048EEE91E099838883CE018C5A1D
:101480009F4F0E94FC10FE01E25AFF4F7182608262
:10149000652DCE01805A9F4F0E94B809FE01E95781
:1014A000FF4F91828082CE5ADF4F198218828DB70A
:1014B0009EB708960FB6F8949EBF0FBE8DBFDF9102
:1014C000CF911F910F91FF90EF90DF90CF90BF9041
:1014D000AF909F908F907F906F905F900895CF9383
:1014E000DF93EC0164E170E080E090E00E949912EB
:1014F00060E08C810E947B1364E170E080E090E00A
:101500000E949912CE0105960E947E10CE01499646
:101510000E947E10CE010F96DF91CF910C947E1029
:10152000CF93DF93EC0144960E947E10CE014E963D
:101530000E947E101C821D821E821F8218861986C0
:101540001A861B8619A618A681E090E09DA78CA795
:10155000DF91CF9108950F931F93CF93DF93EC0109
:101560008AEF91E0998388838CE092E09B838A8361
:101570008E010C5E1F4FC8010E94FC10CE014E96DA
:101580000E94FC1048EE53E060E070E0C8010E9449
:101590008710CE01DF91CF911F910F910C94900A8B
:1015A000CF93DF93EC0105960E947110CE0149960E
:1015B0000E947E10CE010F96DF91CF910C947E1089
:1015C000CF93DF93EC010E946A12AB01BC01CE0104
:1015D000DF91CF910C94D00ACF92DF92EF92FF92DD
:1015E000CF93DF93EC016A017B010E944204FE016C
:1015F000EE5AFF4F11821082B701A601CE018C5A1C
:101600009F4FDF91CF91FF90EF90DF90CF900C94A0
:101610007110CF93DF93EC010E946A12AB01BC0101
:10162000CE01DF91CF910C94EC0A05960C948D10AD
:1016300044960C948D10AF92BF92CF92DF92EF92AE
:10164000FF920F931F93CF93DF938C010E946A1236
:101650006B017C01580189E1A80EB11CC5010E94F3
:101660008D10882349F0C5010E94DD10882309F4FC
:1016700048C0C5010E947E10C80105960E94DD1079
:10168000E8012F96882359F1F80183A194A1A5A11F
:10169000B6A14497A105B10548F061E084810E949C
:1016A0007B13B701A601C5010E947110F80143A187
:1016B00054A165A176A1453DF3E05F076105710581
:1016C00020F044ED53E060E070E0CE010E9487100E
:1016D000B701A601CE010E94711081E013C0CE01B6
:1016E0000E94DD10882369F060E0F80184810E9487
:1016F0007B13B701A601C5010E947110CE010E94A3
:101700007E1080E0DF91CF911F910F91FF90EF90BD
:10171000DF90CF90BF90AF900895CF93DF93EC010F
:101720000E94C904CE018C5A9F4FDF91CF910C9437
:101730007E10CF93DF93EC01FC01EE5AFF4F8081C6
:1017400091818130910541F08230910541F0892BE2
:1017500051F482E090E005C01182108204C081E063
:1017600090E091838083CE010E94E508CE018C5ADF
:101770009F4FDF91CF910C949B10CF93DF93EC019F
:10178000FC01EE5AFF4F808191818130910559F023
:101790008230910529F0892B51F481E090E005C059
:1017A0001182108204C082E090E091838083CE0198
:1017B0000E94E508CE018C5A9F4FDF91CF910C9487
:1017C0009B10CF93DF93EC010E947504882331F1C5
:1017D000FE01E957FF4F0190F081E02D80A591A512
:1017E0008630910551F00797A1F484E090E0FE0166
:1017F000EE5AFF4F918380830CC083E090E0FE019E
:10180000EE5AFF4F91838083CE018C5A9F4F0E94E6
:101810007E10CE010E94E50881E00BC0CE018C5AFB
:101820009F4F0E94DD10882319F0CE010E94BD0B4E
:1018300080E0DF91CF910895CF93DF93EC01CC5AF4
:10184000DF4FCE010E948D10882329F0CE01DF9159
:10185000CF910C947E10CE01DF91CF910C949B1010
:10186000CF92DF92EF92FF92CF93DF93EC014496F9
:101870000E94DD10882309F4E7C01BA61AA688A5DC
:1018800099A58330910509F485C03CF48130910518
:10189000A9F0029709F448C0D7C08530910509F432
:1018A000BBC00CF487C0079709F0CEC0E881F9816E
:1018B0000284F385E02DCE010995C6C07E018EE13C
:1018C000E80EF11CC7010E94DD10882309F4BCC09A
:1018D000C7010E947E10C884D984EA84FB8420E07A
:1018E00030E04CE053E4C701B6010E94891987FD3E
:1018F00010C0E881F9810284F385E02DCE010995BD
:1019000087E090E099A788A783E090E09BA78AA74B
:101910009BC0CC82DD82EE82FF8282E090E099A7BC
:1019200088A71DA61CA690C020E030E040E85FE339
:10193000688579858A859B850E94D61720E030E0EE
:1019400042EA52E40E943A1887FF04C0CE010E9486
:101950006B097AC07E018EE1E80EF11C4091040112
:10196000509105016091060170910701C7010E9425
:101970008710C7010E949B1040E050E062EA72E4C9
:101980004C835D836E837F83CE010E94060983E0D2
:1019900090E058C07E018EE1E80EF11CC7010E9464
:1019A000DD10882309F450C0C7010E947E1084E036
:1019B00090E048C020E030E040E85FE3688579854A
:1019C0008A859B850E94D61720E030E043E053E4EF
:1019D0000E943A1887FDBACF7E018EE1E80EF11C15
:1019E0004091000150910101609102017091030149
:1019F000C7010E948710C7010E949B1040E050E081
:101A000063E073E44C835D836E837F83CE010E9429
:101A1000060985E090E016C07E018EE1E80EF11C1B
:101A2000C7010E94DD10882379F0C7010E947E1053
:101A30001C821D821E821F8282E090E09DA78CA7DF
:101A400086E090E099A788A780E0DF91CF91FF9092
:101A5000EF90DF90CF9008950F931F93CF93DF9374
:101A6000EC0144960E949B101C821D821E821F82E4
:101A700040E050E06DE073E4488759876A877B87D0
:101A80008E01025E1F4F40E157E260E070E0C80146
:101A90000E948710C8010E949B100E946A126C87E6
:101AA0007D878E879F8781E090E099A788A782E055
:101AB00090E09DA78CA7DF91CF911F910F91089582
:101AC00002970C94900502970C946F0A02970C945D
:101AD000900A02970C94E00A02970C94180B029754
:101AE0000C94300C02970C942C0D2F923F924F9235
:101AF0005F926F927F928F929F92AF92BF92CF929E
:101B0000DF92EF92FF920F931F93CF93DF9300D05A
:101B100000D0CDB7DEB71C01DC011E960D911C91E3
:101B20001F97F801C080D180E280F38094968D9059
:101B30009D90AD90BC90979712964D905D906D9052
:101B40007C90159777FA709477F87094A5019401BA
:101B5000C701B6010E94D5179B01AC01C301B201B8
:101B60000E948D192B013C01D1015096ED91FC9101
:101B70005197A701960160817181828193810E94B2
:101B8000D517F10126813781408551850E948D1935
:101B90009B01AC01C301B2010E94D6172B013C018D
:101BA000A5019401C501B4010E94D6179B01AC01A7
:101BB000C701B6010E94D517D10198962D913D918C
:101BC0004D915C919B970E94D617F1012285338538
:101BD000448555850E948D199B01AC01C301B2015A
:101BE0000E94D517D1019C962D913D914D915C910C
:101BF0009F970E94D6172B013C01F10164A775A79E
:101C000086A797A7848D958DA68DB78D89839A8396
:101C1000AB83BC83C0A0D1A0E2A0F3A0A701960132
:101C2000BC01CD010E94D6174B015C019B01AC01A8
:101C3000C301B2010E94891918163CF4D1019C9687
:101C40008D929D92AD92BC929F97F101808C918C68
:101C5000A28CB38CA7019601C501B4010E94D517CF
:101C60006B017C019B01AC01D1019C966D917D9132
:101C70008D919C919F970E943A1887FF05C0F101B2
:101C8000C4A6D5A6E6A6F7A6D1019C964D905D9078
:101C90006D907C909F9729813A814B815C81C30133
:101CA000B2010E948919F101E288F388181654F4F0
:101CB00089819A81AB81BC81F70180839183A28362
:101CC000B38314C0A5019401C301B2010E943A1864
:101CD00087FF07C0D7018D929D92AD92BC9213975A
:101CE00005C0F7014082518262827382F10184A1B2
:101CF00095A1A6A1B7A180A791A7A2A7B3A7F80114
:101D000080819181A281B381F10184A395A3A6A3CF
:101D1000B7A30F900F900F900F90DF91CF911F916D
:101D20000F91FF90EF90DF90CF90BF90AF909F907A
:101D30008F907F906F905F904F903F902F9008957D
:101D4000FC0114A215A216A217A210A611A612A693
:101D500013A608952F923F924F925F926F927F92B7
:101D60008F929F92AF92BF92CF92DF92EF92FF92AB
:101D70000F931F93CF93DF9300D000D0CDB7DEB782
:101D80001C0149835A836B837C834801590120E0FD
:101D900030E0A90169817A818B819C810E943A1887
:101DA00087FD44C020E030E0A901C501B4010E94D4
:101DB0003A1887FD3BC020E030E0A901C701B60119
:101DC0000E943A1887FD32C0D10154966D917D91E1
:101DD0008D919C9157970E94D71820E030E04AE7F8
:101DE00054E40E943E182B013C0189819A81AB8109
:101DF000BC81F10182839383A483B583A301920103
:101E0000C501B4010E948D19D10116966D937D9381
:101E10008D939C931997A3019201C701B6010E946B
:101E20003E18F10162877387848795870F900F9022
:101E30000F900F90DF91CF911F910F91FF90EF9036
:101E4000DF90CF90BF90AF909F908F907F906F90DA
:101E50005F904F903F902F9008954F925F926F92B6
:101E60007F928F929F92AF92BF92CF92DF92EF922A
:101E7000FF920F931F93CF93DF93EC016A017B01D5
:101E800048015901A9019801C701B6010E948919A9
:101E900087FF28C0C88ED98EEA8EFB8E8C8E9D8ED1
:101EA000AE8EBF8E0A88DB89C02D488059806A803B
:101EB0007B80A5019401C301B2010E948919181603
:101EC0002CF488829982AA82BB820CC0A701960159
:101ED000C301B2010E943A1887FF04C0C882D982A8
:101EE000EA82FB82DF91CF911F910F91FF90EF90DB
:101EF000DF90CF90BF90AF909F908F907F906F902A
:101F00005F904F9008954F925F926F927F928F9261
:101F10009F92AF92BF92CF92DF92EF92FF920F9378
:101F20001F93CF93DF9300D000D0CDB7DEB74C0125
:101F300027013801A982BA82CB82DC8288E192E053
:101F4000F4019183808377876687318B208B538B55
:101F5000428B00E010E02FE733E440E050E0BA01AC
:101F6000C4010E942D0F84E690E0A0E0B0E0F401EF
:101F7000848B958BA68BB78B8B8D9C8DAD8DBE8DF9
:101F800080A391A3A2A3B3A3CF88D88CE98CFA8CA9
:101F900009811A812B813C81B301A201C4010E94F5
:101FA000AA0E0F900F900F900F90DF91CF911F917D
:101FB0000F91FF90EF90DF90CF90BF90AF909F90E8
:101FC0008F907F906F905F904F9008958F929F9227
:101FD000AF92BF92CF92DF92EF92FF92CF93DF93B7
:101FE000EC0116161706ACF56B01EE24D7FCE09455
:101FF000FE2CC701B6010E94D9184B015C016C8907
:102000007D898E899F890E94D7189B01AC01C501EB
:10201000B4010E943E184B015C019B01AC016E8132
:102020007F81888599850E948D196E837F8388873B
:102030009987A50194016A857B858C859D850E9481
:102040003E186A877B878C879D87CC8ADD8AEE8ADB
:10205000FF8ADF91CF91FF90EF90DF90CF90BF90FC
:10206000AF909F908F9008956F927F928F929F92E2
:10207000AF92BF92CF92DF92EF92FF920F931F9396
:10208000CF93DF93CDB7DEB74C0189899A89EB896D
:10209000FC89AD89BE897F88688C6F927F92BF93DF
:1020A000AF93FF93EF939F938F93C4010E94830F8D
:1020B00080E292E0F401918380830FB6F894DEBF52
:1020C0000FBECDBFDF91CF911F910F91FF90EF9089
:1020D000DF90CF90BF90AF909F908F907F906F9048
:1020E0000895DC0112964D935D936D937C93159743
:1020F000ED91FC910484F585E02D09944FEF5FEF9D
:10210000BA01FC0142835383648375830895FC0103
:102110001682178210861186089521E0FC01428103
:102120005381648175814F3F5F4F6F4F7F4F09F43B
:1021300020E0822F08950F931F93CF93DF93EC013C
:102140000E946A120E811F8128853985600F711FD8
:10215000821F931F6A837B838C839D83DF91CF9142
:102160001F910F910895CF92DF92EF92FF920F93FC
:102170001F93CF93DF93EC010E946A120A811B81A7
:102180002C813D81601771078207930768F0CE802C
:10219000DF80E884F984C00ED11EE21EF31ECA82DD
:1021A000DB82EC82FD82EACFDF91CF911F910F910C
:1021B000FF90EF90DF90CF9008950F931F93CF93F0
:1021C000DF93EC010E946A120A811B812C813D8100
:1021D000601771078207930748F0E881F98104844A
:1021E000F585E02DCE01099581E001C080E0DF9109
:1021F000CF911F910F910895FC0188E292E09183A5
:10220000808316821782108611864FEF5FEFBA0126
:1022100042835383648375830895CF92DF92EF9254
:10222000FF920F931F93CF93DF93EC016801790125
:1022300002960E948710B701A601CE010C96DF918D
:10224000CF911F910F91FF90EF90DF90CF900C9462
:102250008710FC01248521110C9487100895CF93D9
:10226000DF93EC016C87611107C044E650E060E049
:1022700070E00E9487101B86DF91CF9108951F9315
:10228000CF93DF93EC01162F0E94FC101A8762E0B7
:10229000812F0E9442136C85CE010E942F1144E6CB
:1022A00050E060E070E0CE010E9429111B86DF91B2
:1022B000CF911F910895CF93DF93EC0160E08E8959
:1022C0000E947B13CE0102960E947E10CE010C96D6
:1022D000DF91CF910C947E101F93CF93DF93EC018D
:1022E000162FFC012AE332E021933193CF010E94A3
:1022F000FC10CE010C960E94FC101E8B61E0812F19
:102300000E94421360E08E890E947B13CE01DF9110
:10231000CF911F910C945B11EF92FF920F931F933B
:10232000CF93DF9300D000D0CDB7DEB77C0102960B
:1023300049835A836B837C830E947E108701045FEC
:102340001F4F49815A816B817C81C8010E9487108F
:1023500061E0F70186890E947B13C8010F900F90FE
:102360000F900F90DF91CF911F910F91FF90EF9001
:102370000C949B10CF93DF93EC0102960E949B106C
:1023800061E08E890E947B13CE010C96DF91CF9184
:102390000C949B100F931F93CF93DF93EC01029645
:1023A0000E94DD108E01045F1F4F882349F061E019
:1023B0008E890E947B13C8010E949B1081E00DC092
:1023C000C8010E94DD10882339F060E08E890E94E8
:1023D0007B13C8010E947E1080E0DF91CF911F9196
:1023E0000F9108951F93CF93DF93EC018A850E948C
:1023F000B113892B99F4CE010E94DD10811102C026
:1024000010E016C08B85882311F01C8511C0CE0109
:102410000E949B1081E08B8711E00AC08B85882386
:1024200079F31B861C851111EBCFCE010E949B1006
:10243000812FDF91CF911F91089502960C948D10FA
:102440001F920F920FB60F9211242F933F938F93E9
:102450009F93AF93BF938091770390917803A0915E
:102460007903B0917A033091760323E0230F2D375F
:1024700020F40196A11DB11D05C026E8230F029688
:10248000A11DB11D20937603809377039093780369
:10249000A0937903B0937A0380917B0390917C039E
:1024A000A0917D03B0917E030196A11DB11D809383
:1024B0007B0390937C03A0937D03B0937E03BF9135
:1024C000AF919F918F913F912F910F900FBE0F90E1
:1024D0001F9018952FB7F894609177037091780347
:1024E0008091790390917A032FBF08953FB7F894B4
:1024F00080917B0390917C03A0917D03B0917E033A
:1025000026B5A89B05C02F3F19F00196A11DB11D4E
:102510003FBF6627782F892F9A2F620F711D811D6B
:10252000911D42E0660F771F881F991F4A95D1F7CA
:1025300008958F929F92AF92BF92CF92DF92EF92C7
:10254000FF926B017C010E9476124B015C01C11469
:10255000D104E104F104F1F00E94D4170E94761234
:10256000681979098A099B09683E734081059105BC
:1025700070F321E0C21AD108E108F10888EE880E54
:1025800083E0981EA11CB11CC114D104E104F10424
:1025900029F7DDCFFF90EF90DF90CF90BF90AF9005
:1025A0009F908F9008958230910538F0880F991F81
:1025B000880F991F05970197F1F70895789484B5CE
:1025C000826084BD84B5816084BD85B5826085BD2F
:1025D00085B5816085BDEEE6F0E080818160808315
:1025E000E1E8F0E0108280818260808380818160F8
:1025F0008083E0E8F0E0808181608083E1EBF0E0BF
:10260000808184608083E0EBF0E080818160808362
:10261000EAE7F0E08081846080838081826080834B
:102620008081816080838081806880831092C10076
:102630000895833081F028F4813099F08230A1F040
:1026400008958730A9F08830B9F08430D1F48091B2
:1026500080008F7D03C0809180008F778093800001
:10266000089584B58F7702C084B58F7D84BD0895A9
:102670008091B0008F7703C08091B0008F7D8093F0
:10268000B0000895CF93DF9390E0FC01E458FF4F32
:102690002491FC01E057FF4F8491882349F190E099
:1026A000880F991FFC01E854FF4FA591B491825502
:1026B0009F4FFC01C591D4919FB7611108C0F89458
:1026C0008C91209582238C93888182230AC062306A
:1026D00051F4F8948C91322F309583238C93888118
:1026E000822B888304C0F8948C91822B8C939FBF9B
:1026F000DF91CF9108950F931F93CF93DF931F9294
:10270000CDB7DEB7282F30E0F901E859FF4F8491AB
:10271000F901E458FF4F1491F901E057FF4F04917C
:102720000023C9F0882321F069830E94191369816D
:10273000E02FF0E0EE0FFF1FE255FF4FA591B4919F
:102740009FB7F8948C91611103C01095812301C04B
:10275000812B8C939FBF0F90DF91CF911F910F9191
:102760000895CF93DF93282F30E0F901E859FF4F08
:102770008491F901E458FF4FD491F901E057FF4FDC
:10278000C491CC2391F081110E941913EC2FF0E039
:10279000EE0FFF1FEC55FF4FA591B4912C912D2307
:1027A00081E090E021F480E002C080E090E0DF91E1
:1027B000CF9108950E94361AFC01818D228D90E000
:1027C000805C9F4F821B91098F7399270895FC01AC
:1027D000918D828D981731F0828DE80FF11D858DD6
:1027E00090E008958FEF9FEF0895FC01918D828D09
:1027F000981761F0828DDF01A80FB11D5D968C9155
:10280000928D9F5F9F73928F90E008958FEF9FEF5F
:10281000089589E795E1892B49F080E090E0892BC4
:1028200029F00E94791581110C9400000895FC0193
:10283000848DDF01A80FB11DA35ABF4F2C91848D49
:1028400090E001968F739927848FA689B7892C937E
:10285000A089B1898C9180648C93938D848D981319
:1028600006C00288F389E02D80818F7D80830895E2
:10287000CF93DF93EC01888D8823C9F0EA89FB8927
:10288000808185FD05C0A889B9898C9186FD0FC01E
:102890000FB607FCF5CF808185FFF2CFA889B989F3
:1028A0008C9185FFEDCFCE010E941714E7CFDF9109
:1028B000CF910895CF92DF92FF920F931F93CF9302
:1028C000DF931F92CDB7DEB76C0181E0D601589639
:1028D0008C9358975B969C915B975C968C915C97D8
:1028E000981307C05096ED91FC915197808185FD1A
:1028F0002EC0F601038D10E00F5F1F4F0F731127DD
:10290000F02EF601848DF81211C00FB607FCF9CF36
:10291000D6015096ED91FC915197808185FFF1CFC2
:10292000C60169830E9417146981EBCF838DE80F7C
:10293000F11DE35AFF4F6083D6015B960C935B97C2
:102940005296ED91FC915397808180620CC0D60124
:102950005696ED91FC91579760835096ED91FC91BE
:10296000519780818064808381E090E00F90DF91B7
:10297000CF911F910F91FF90DF90CF900895BF925C
:10298000CF92DF92EF92FF92CF93DF93EC016A0137
:102990007B01B22EE889F98982E08083411581EEBE
:1029A000580761057105A1F060E079E08DE390E0E2
:1029B000A70196010E94F4192150310941095109DA
:1029C0005695479537952795211580E1380798F05A
:1029D000E889F989108260E874E88EE190E0A70147
:1029E00096010E94F4192150310941095109569567
:1029F000479537952795EC85FD853083EE85FF85D6
:102A00002083188EEC89FD89B082EA89FB89808158
:102A100080618083EA89FB89808188608083EA897C
:102A2000FB89808180688083EA89FB8980818F7D32
:102A30008083DF91CF91FF90EF90DF90CF90BF9098
:102A400008951F920F920FB60F9211242F938F9318
:102A50009F93EF93FF93E0918F03F0919003808118
:102A6000E0919503F091960382FD12C090818091D0
:102A700098038F5F8F7320919903821751F0E09133
:102A80009803F0E0E158FC4F958F8093980301C0C4
:102A90008081FF91EF919F918F912F910F900FBEA9
:102AA0000F901F9018951F920F920FB60F9211243E
:102AB0002F933F934F935F936F937F938F939F9346
:102AC000AF93BF93EF93FF938FE793E00E941714A8
:102AD000FF91EF91BF91AF919F918F917F916F91F6
:102AE0005F914F913F912F910F900FBE0F901F90CC
:102AF00018958FE793E00E94DC1321E0892B09F4FD
:102B000020E0822F0895109282031092810388EEB4
:102B100093E0A0E0B0E08093830390938403A093BC
:102B20008503B093860386E492E0909380038093BC
:102B30007F0385EC90E090938C0380938B0384EC6F
:102B400090E090938E0380938D0380EC90E09093BF
:102B5000900380938F0381EC90E090939203809395
:102B6000910382EC90E0909394038093930386EC1E
:102B700090E090939603809395031092980310929F
:102B8000990310929A0310929B03089508950E944E
:102B9000DE120E94C6150E94D200C9E0D4E10E9454
:102BA00014012097E1F30E940914F9CFCF92DF922C
:102BB000EF92FF920F931F93CF93DF937C016A01F3
:102BC000EB0100E010E00C151D0571F06991D701D3
:102BD000ED91FC910190F081E02DC7010995892BC1
:102BE00019F00F5F1F4FEFCFC801DF91CF911F91F9
:102BF0000F91FF90EF90DF90CF90089561157105D0
:102C000081F0DB010D900020E9F7AD014150510941
:102C1000461B570BDC01ED91FC910280F381E02D06
:102C2000099480E090E008950C94FE15DC01ED918C
:102C3000FC910190F081E02D099462E572E00C9422
:102C4000FE150F931F93CF93DF93EC010E94FE15A7
:102C50008C01CE010E941D16800F911FDF91CF9134
:102C60001F910F9108958F929F92AF92BF92DF9222
:102C7000EF92FF920F931F93CF93DF93CDB7DEB701
:102C8000A1970FB6F894DEBF0FBECDBF7C01F42F25
:102C9000D52ECB0119A2223008F42AE08E010F5D57
:102CA0001F4F822E912CA12CB12C6F2F7D2DA501B1
:102CB00094010E94F419F22FD32ECA010150110978
:102CC0006A3014F4E0E301C0E7E3E60FD801EC93C7
:102CD000232B242B252B49F7B801C7010E94FE1591
:102CE000A1960FB6F894DEBF0FBECDBFDF91CF9196
:102CF0001F910F91FF90EF90DF90BF90AF909F904A
:102D00008F900895CF92DF92EF92FF920F931F93CF
:102D1000CF93DF93EC016A017B012115310579F432
:102D2000E881F9810190F081E02D642FDF91CF914E
:102D30001F910F91FF90EF90DF90CF9009942A3070
:102D40003105E9F477FF1AC06DE20E9416168C0176
:102D500044275527BA014C195D096E097F092AE0FD
:102D6000CE010E943316800F911FDF91CF911F91EA
:102D70000F91FF90EF90DF90CF9008952AE0B70178
:102D8000A601CE01DF91CF911F910F91FF90EF909F
:102D9000DF90CF900C9433169A01AB01662757FD54
:102DA0006095762F0C9482162115310541F4DC01D3
:102DB000ED91FC910190F081E02D642F09940C9429
:102DC00033169A01AB0160E070E00C94D4164F9278
:102DD0005F926F927F928F929F92AF92BF92CF92AB
:102DE000DF92EF92FF920F931F93CF93DF93EC014B
:102DF0006A017B01B22E9A01AB01C701B6010E94A4
:102E0000F019882319F065E572E027C02601370123
:102E1000E89477F82FEF3FEF4FE75FE7C301B20188
:102E20000E94F01981110DC02FEF3FEF4FE75FE7D0
:102E3000C301B2010E943A1818161CF469E572E049
:102E40000CC02FEF3FEF4FE75FE4C701B6010E94D0
:102E500089191816ACF46DE572E0CE01DF91CF91BF
:102E60001F910F91FF90EF90DF90CF90BF90AF90A8
:102E70009F908F907F906F905F904F900C94FE1575
:102E80002FEF3FEF4FE75FECC701B6010E943A1802
:102E900087FDE1CF20E030E0A901C701B6010E9423
:102EA0003A1887FF0AC06DE2CE010E9416168C0107
:102EB000F7FAF094F7F8F09402C000E010E0A12CCB
:102EC00060E070E080E09FE3AB1441F020E030E090
:102ED00040E251E40E943E18A394F6CF9B01AC015E
:102EE000C701B6010E94D6176B017C010E94AB1886
:102EF0002B013C010E94D7189B01AC01C701B60110
:102F00000E94D5176B017C012AE0B301A201CE011A
:102F10000E943316080F191FBB2039F061E672E0DA
:102F2000CE010E94FE15080F191F7B2C772041F15E
:102F300020E030E040E251E4C701B6010E948D1963
:102F40006B017C010E94A6184B01AA2497FCA09457
:102F5000BA2C2AE030E0B501A401CE010E9482160D
:102F6000080F191FC501B4010E94D9189B01AC01BB
:102F7000C701B6010E94D5176B017C017A94D6CFA8
:102F8000C801DF91CF911F910F91FF90EF90DF90DB
:102F9000CF90BF90AF909F908F907F906F905F90F9
:102FA0004F9008950C94E71608955058BB27AA2710
:102FB0000ED075C166D130F06BD120F031F49F3F57
:102FC00011F41EF45BC10EF4E095E7FB51C1E92F4B
:102FD00077D180F3BA17620773078407950718F053
:102FE00071F49EF58FC10EF4E0950B2EBA2FA02D33
:102FF0000B01B90190010C01CA01A0011124FF27A6
:10300000591B99F0593F50F4503E68F11A16F040A0
:10301000A22F232F342F4427585FF3CF469537959F
:103020002795A795F0405395C9F77EF41F16BA0B64
:10303000620B730B840BBAF09150A1F0FF0FBB1F12
:10304000661F771F881FC2F70EC0BA0F621F731F5B
:10305000841F48F4879577956795B795F7959E3FB8
:1030600008F0B3CF9395880F08F09927EE0F979546
:1030700087950895D9D008F481E008950CD00FC148
:1030800007D140F0FED030F021F45F3F19F0F0C0DE
:10309000511139C1F3C014D198F39923C9F35523C1
:1030A000B1F3951B550BBB27AA276217730784073B
:1030B00038F09F5F5F4F220F331F441FAA1FA9F3F1
:1030C00033D00E2E3AF0E0E830D091505040E695E3
:1030D000001CCAF729D0FE2F27D0660F771F881F44
:1030E000BB1F261737074807AB07B0E809F0BB0B33
:1030F000802DBF01FF2793585F4F2AF09E3F510557
:1031000068F0B6C000C15F3FECF3983EDCF38695F3
:1031100077956795B795F7959F5FC9F7880F911DCC
:103120009695879597F90895E1E0660F771F881FB8
:10313000BB1F621773078407BA0720F0621B730B6B
:10314000840BBA0BEE1F88F7E095089504D06894BD
:10315000B111D9C00895BCD088F09F5790F0B92F15
:103160009927B751A0F0D1F0660F771F881F991FDC
:103170001AF0BA95C9F712C0B13081F0C3D0B1E0EE
:103180000895C0C0672F782F8827B85F39F0B93FFE
:10319000CCF3869577956795B395D9F73EF49095DE
:1031A0008095709561957F4F8F4F9F4F0895E8945C
:1031B00009C097FB3EF490958095709561957F4F7F
:1031C0008F4F9F4F9923A9F0F92F96E9BB2793952D
:1031D000F695879577956795B795F111F8CFFAF43D
:1031E000BB0F11F460FF1BC06F5F7F4F8F4F9F4F6E
:1031F00016C0882311F096E911C0772321F09EE8CC
:10320000872F762F05C0662371F096E8862F70E031
:1032100060E02AF09A95660F771F881FDAF7880F0B
:103220009695879597F90895990F0008550FAA0B61
:10323000E0E8FEEF16161706E807F907C0F01216C9
:103240001306E407F50798F0621B730B840B950BCC
:1032500039F40A2661F0232B242B252B21F4089521
:103260000A2609F4A140A6958FEF811D811D0895BE
:1032700097F99F6780E870E060E008959FEF80EC29
:10328000089500240A9416161706180609060895CC
:1032900000240A9412161306140605060895092E32
:1032A0000394000C11F4882352F0BB0F40F4BF2BA1
:1032B00011F460FF04C06F5F7F4F8F4F9F4F0895E1
:1032C00057FD9058440F551F59F05F3F71F04795D7
:1032D000880F97FB991F61F09F3F79F087950895BC
:1032E000121613061406551FF2CF4695F1DF08C0DB
:1032F000161617061806991FF1CF869571056105F8
:1033000008940895E894BB2766277727CB0197F99F
:1033100008958ADF08F48FEF08950BD0C0CFB1DF96
:1033200028F0B6DF18F0952309F0A2CFA7CF11241B
:10333000EACFC6DFA0F3959FD1F3950F50E0551F5C
:10334000629FF001729FBB27F00DB11D639FAA27FA
:10335000F00DB11DAA1F649F6627B00DA11D661F49
:10336000829F2227B00DA11D621F739FB00DA11D6A
:10337000621F839FA00D611D221F749F3327A00D24
:10338000611D231F849F600D211D822F762F6A2FC0
:1033900011249F5750408AF0E1F088234AF0EE0F45
:1033A000FF1FBB1F661F771F881F91505040A9F752
:1033B0009E3F510570F05CCFA6CF5F3FECF3983E87
:1033C000DCF3869577956795B795F795E7959F5FB9
:1033D000C1F7FE2B880F911D9695879597F9089553
:1033E00023DF880B990B0895A1E21A2EAA1BBB1BA1
:1033F000FD010DC0AA1FBB1FEE1FFF1FA217B307C1
:10340000E407F50720F0A21BB30BE40BF50B661FD6
:10341000771F881F991F1A9469F76095709580959A
:1034200090959B01AC01BD01CF0108950E94271A20
:10343000A59F900DB49F900DA49F800D911D112408
:103440000895EE0FFF1F0590F491E02D0994A29FBF
:10345000B001B39FC001A39F700D811D1124911D68
:10346000B29F700D811D1124911D089581E090E09F
:0A347000F8940C943B1AF894FFCF77
:10347A0080FCFFFF4077000048454C4C4F2D31320D
:10348A003334353637383930002D2D2D2D2D53450F
:10349A00542055502D2D2D2D2D005354415254009A
:1034AA00000000002C03D615000000007504690412
:1034BA00C9048D05535441545553203A2000546F82
:1034CA002038300043004B65657020383000546F57
:1034DA00313330004B65657031333000434F4F4C08
:1034EA00494E47004F5554505554203A20004552F2
:1034FA00524F52004552524F52434F4445203A20B0
:10350A00003030004E4F57203A2000544F20203AC6
:10351A0020000900454C41505345203A20005245AD
:10352A004D41494E203A2000434F4F4C494E4720C7
:10353A002000524553554C54203A20000000000008
:10354A00DA05000000001B0BE00A6F0A150B900554
:10355A00FEFF0000600D690D630D00000000E10B25
:10356A00090B8D0B8D0500000000A405AE05AA0508
:10357A00300C2C0D900A180BFEFF00006F0D720D17
:10358A00660D6C0D00000000DA13DA13000000006B
:10359A00750DA00E00000000DD109B107E108D102E
:1035AA0071108710B31000000000CA11BA115B1124
:1035BA001D12000000005A14D615DC13F513E71388
:1035CA0038140D0A006E616E00696E66006F7666C9
:0435DA00002E0000BF
:00000001FF
