:100000000C945D000C9485000C9485000C94850084
:100010000C9485000C9485000C9485000C9485004C
:100020000C9485000C9485000C9485000C9485003C
:100030000C9485000C9485000C9485000C9485002C
:100040000C946D070C9485000C9407060C94E10544
:100050000C9485000C9485000C9485000C9485000C
:100060000C9485000C94850000000008000201003B
:100070000003040700000000000000000000000072
:10008000250028002B0000000000240027002A0083
:10009000040404040404040402020202020203032E
:1000A0000303030301020408102040800102040836
:1000B00010200102040810206D0B11241FBECFEF89
:1000C000D8E0DEBFCDBF11E0A0E0B1E0E4EAFFE19F
:1000D00002C005900D92A63DB107D9F723E0A6ED29
:1000E000B1E001C01D92AC35B207E1F710E0CDE5FB
:1000F000D0E004C02197FE010E94C50FCC35D10786
:10010000C9F70E942F0A0C94D00F0C9400004FEFF7
:100110005FEFBA01FC0142835383648375830895C2
:10012000FC01411551056105710529F0342F252F7A
:10013000962F872F04C031E020E090E080E03683E6
:100140002783908781870895FC01918D828D981770
:1001500061F0828DDF01A80FB11D5D968C91928DAB
:100160009F5F9F73928F90E008958FEF9FEF0895A8
:10017000FC01918D828D981731F0828DE80FF11D71
:10018000858D90E008958FEF9FEF0895FC01918D8C
:10019000228D892F90E0805C9F4F821B91098F7385
:1001A0009927089583EE91E00E94C60021E0892BF3
:1001B00009F420E0822F0895FC01848DDF01A80F4F
:1001C000B11DA35ABF4F2C91848D90E001968F737F
:1001D0009927848FA689B7892C93A089B1898C919E
:1001E00080648C93938D848D981306C00288F38964
:1001F000E02D80818F7D80830895EF92FF920F9391
:100200001F93CF93DF93EC0181E0888F9B8D8C8DC2
:10021000981305C0E889F989808185FD24C0F62EF0
:100220000B8D10E00F5F1F4F0F731127E02E8C8D89
:10023000E8120CC00FB607FCFACFE889F989808173
:1002400085FFF5CFCE010E94DC00F1CF8B8DFE0142
:10025000E80FF11DE35AFF4FF0820B8FEA89FB890B
:100260008081806207C0EE89FF896083E889F9890F
:1002700080818064808381E090E0DF91CF911F9145
:100280000F91FF90EF900895CF93DF93EC01888D4D
:100290008823C9F0EA89FB89808185FD05C0A8898A
:1002A000B9898C9186FD0FC00FB607FCF5CF808110
:1002B00085FFF2CFA889B9898C9185FFEDCFCE015A
:1002C0000E94DC00E7CFDF91CF91089580E090E0BD
:1002D000892B29F00E94D20081110C94000008950E
:1002E0003FB7F8948091DB019091DC01A091DD0192
:1002F000B091DE0126B5A89B05C02F3F19F00196ED
:10030000A11DB11D3FBFBA2FA92F982F8827820F9B
:10031000911DA11DB11DBC01CD0142E0660F771FEB
:10032000881F991F4A95D1F708958F929F92AF9297
:10033000BF92CF92DF92EF92FF926B017C010E94FD
:1003400070014B015C01C114D104E104F104F1F02E
:100350000E947001DC01CB0188199909AA09BB0927
:10036000883E9340A105B10570F321E0C21AD1087F
:10037000E108F10888EE880E83E0981EA11CB11CEC
:10038000C114D104E104F10419F7DDCFFF90EF901F
:10039000DF90CF90BF90AF909F908F9008952FB730
:1003A000F8946091D7017091D8018091D901909112
:1003B000DA012FBF08950F931F93FC018091DF0195
:1003C0009091E001A091E101B091E201428153815D
:1003D0006481758184179507A607B70768F00681C1
:1003E000178120853185400F511F621F731F428383
:1003F000538364837583EACF1F910F91089521E0A1
:10040000FC0182819381A481B5818F3F9F4FAF4FC3
:10041000BF4F09F420E0822F0895DC0112964D931E
:100420005D936D937C931597ED91FC910484F58514
:10043000E02D09940F931F93FC01068117812085FD
:1004400031854091DF015091E0016091E1017091AF
:10045000E201400F511F621F731F42835383648365
:1004600075831F910F9108950F931F930091DF01E2
:100470001091E0012091E1013091E201DC0112963E
:100480004D915D916D917C91159704171507260785
:10049000370740F0ED91FC910484F585E02D099536
:1004A00081E001C080E01F910F910895FC0114A22A
:1004B00015A216A217A210A611A612A613A6089599
:1004C0002F923F924F925F926F927F928F929F9264
:1004D000AF92BF92CF92DF92EF92FF920F931F9352
:1004E000CF93DF9300D000D0CDB7DEB71C01DC0185
:1004F0001E960D911C911F97F801C080D180E2805B
:10050000F38094968D909D90AD90BC9097971296A5
:100510004D905D906D907C90159777FA709477F878
:100520007094A5019401C701B6010E941B0E9B01A6
:10053000AC01C301B2010E94360F2B013C01D10175
:100540005096ED91FC915197A701960160817181C0
:10055000828193810E941B0EF101268137814085A3
:1005600051850E94360F9B01AC01C301B2010E946C
:100570001C0E2B013C01A5019401C501B4010E9490
:100580001C0E9B01AC01C701B6010E941B0ED101DC
:1005900098962D913D914D915C919B970E941C0ED8
:1005A000F10122853385448555850E94360F9B01D4
:1005B000AC01C301B2010E941B0ED1019C962D918A
:1005C0003D914D915C919F970E941C0E2B013C0127
:1005D000F10164A775A786A797A7848D958DA68D31
:1005E000B78D89839A83AB83BC83C0A0D1A0E2A0DE
:1005F000F3A0A7019601BC01CD010E941C0E4B0186
:100600005C019B01AC01C301B2010E94310F1816BD
:100610003CF4D1019C968D929D92AD92BC929F9795
:10062000F101808C918CA28CB38CA7019601C5013D
:10063000B4010E941B0E6B017C019B01AC01D10136
:100640009C966D917D918D919C919F970E94880EB3
:1006500087FF05C0F101C4A6D5A6E6A6F7A6D1017D
:100660009C964D905D906D907C909F9729813A81EA
:100670004B815C81C301B2010E94310FF101E2881C
:10068000F388181654F489819A81AB81BC81F701F3
:1006900080839183A283B38314C0A5019401C30115
:1006A000B2010E94880E87FF07C0D7018D929D92EC
:1006B000AD92BC92139705C0F701408251826282CD
:1006C0007382F10184A195A1A6A1B7A180A791A7EA
:1006D000A2A7B3A7F80180819181A281B381F10122
:1006E00084A395A3A6A3B7A30F900F900F900F908C
:1006F000DF91CF911F910F91FF90EF90DF90CF90FE
:10070000BF90AF909F908F907F906F905F904F9031
:100710003F902F90089521E0FC0187819085A1856D
:10072000B2858F3F9F4FAF4FBF4F09F420E0822F1C
:100730000895CF93DF93EC012AE037ED43EA5CE3C1
:100740006A817B818C819D810E941C0E6A837B83E0
:100750008C839D83DF91CF9108958F929F92AF926A
:10076000BF92CF92DF92EF92FF92CF93DF93EC0193
:100770000E94CF016B017C0188A599A5823091056B
:1007800031F005978CF440E050E0BA0104C040E439
:1007900057E760E070E04A015B0180E8881A83E077
:1007A000980AA108B10803C0812C912C54012C8116
:1007B0003D814E815F8160E070E083E093E40E94C0
:1007C0001B0E20E030E64AEE56E40E94360F0E94EF
:1007D0008D0EAB01BC01480D591D6A1D7B1D4931B1
:1007E00086E2580785E7680785E1780720F048E149
:1007F00056E265E775E14C0D5D1D6E1D7F1D488B52
:10080000598B6A8B7B8BDF91CF91FF90EF90DF90BC
:10081000CF90BF90AF909F908F9008958F929F92AE
:10082000AF92BF92CF92DF92EF92FF92CF93DF937E
:10083000EC01209184023091850240918602509112
:1008400087026C817D818E819F810E941C0E4B01ED
:100850005C016C837D838E839F8320E030E040E8E1
:100860005FE3688579858A859B850E941C0E6B01F4
:100870007C019B01AC01C501B4010E94310F181627
:100880005CF481E090E09BA78AA7CC82DD82EE82B7
:10089000FF82CE010E94AD038C819D81AE81BF811C
:1008A00088879987AA87BB87DF91CF91FF90EF90C8
:1008B000DF90CF90BF90AF909F908F900895CF9290
:1008C000DF92EF92FF92CF93DF93EC016A017B01FD
:1008D000288539854A855B85C701B6010E94880E47
:1008E00087FF04C0C886D986EA86FB8620E030E010
:1008F0004CE053E4C701B6010E94310F181624F4EE
:1009000082E090E09BA78AA7DF91CF91FF90EF90C4
:10091000DF90CF900895FC0184A595A50895FC0172
:1009200064817581868197810895CF93DF93EC016F
:10093000FC01EE5BFF4F80819181DC01ED91FC9128
:100940000190F081E02D0995AB01BC01FE01EC5B4B
:10095000FF4F4083518362837383C05BDF4F888185
:100960009981DC01ED91FC910280F381E02DDF9112
:10097000CF91099421E0FC0184819581A681B78102
:100980008F3F9F4FAF4FBF4F09F420E0822F089554
:10099000CF93DF93EC018C859D85DC01ED91FC917B
:1009A0000480F581E02D09958FEF9FEFDC018C83AA
:1009B0009D83AE83BF83C45BDF4F19821882DF91B2
:1009C000CF9108950F931F93CF93DF9300D000D062
:1009D000CDB7DEB78C010E94CF01AB01BC01C801CD
:1009E00049835A836B837C830E94950449815A8191
:1009F0006B817C81C80102960E940D02F801E45BC4
:100A0000FF4F82E090E0918380830F900F900F90D2
:100A10000F90DF91CF911F910F91089521E0FC017C
:100A200084819581A681B7818F3F9F4FAF4FBF4F84
:100A300009F420E0822F08950E94CB0FAF92BF925D
:100A4000CF92DF92FF920F931F93CF93DF93EC012E
:100A500002960E943402F82E811102C0F12CA6C029
:100A60006E018EE4C80ED11CD6011D921C925E014F
:100A7000B0E5AB0EB11CF50180819181DC01ED91F7
:100A8000FC910480F581E02D09959C018E01045BA9
:100A90001F4F8130910551F18230910599F1892BD9
:100AA00009F041C0F80180819181019769F081E0EE
:100AB00090E0918380838C859D85DC01ED91FC9194
:100AC0000280F381E02D0995F50180819181DC019F
:100AD000ED91FC910190F081E02D0995FE01E85B1C
:100AE000FF4F60837183828393831DC0F8018081EF
:100AF0009181892BC1F0E881F9810480F581E02D95
:100B0000CE0110C0D8018D919C911197029759F098
:100B10002D933C938C859D85DC01ED91FC910480A7
:100B2000F581E02D0995F80180819181892B09F4E7
:100B300095CFCE010E949504D8018D919C9102978A
:100B4000A9F10E94CF014AE00E94210886E891E0C5
:100B50000E940108CE010E960E9460020E94CF0101
:100B60004AE00E94210888E891E00E9401088C85F3
:100B70009D85DC01ED91FC91EE96488159816A8159
:100B80007B810190F081E02D099520E030E04AE77B
:100B900054E4688179818A819B810E94880E811149
:100BA00005C081E090E0F601918380838F2DDF9175
:100BB000CF911F910F91FF90DF90CF90BF90AF909A
:100BC00008951F920F920FB60F9211242F933F9307
:100BD0004F935F936F937F938F939F93AF93BF9345
:100BE000EF93FF9383EE91E00E94DC00FF91EF9181
:100BF000BF91AF919F918F917F916F915F914F9135
:100C00003F912F910F900FBE0F901F9018951F923C
:100C10000F920FB60F9211242F938F939F93EF9300
:100C2000FF93E091F301F091F4018081E091F901EB
:100C3000F091FA0182FD12C090818091FC018F5FDA
:100C40008F732091FD01821751F0E091FC01F0E0DB
:100C5000ED51FE4F958F8093FC0101C08081FF9183
:100C6000EF919F918F912F910F900FBE0F901F903A
:100C7000189590E0FC01E859FF4F3491FC01EC55C8
:100C8000FF4F2491FC01E057FF4FE491EE2309F45C
:100C90003BC0332339F1333091F038F43130A9F0CF
:100CA000323001F584B58F7D12C0373091F0383085
:100CB000A1F03430B9F4809180008F7D03C0809121
:100CC00080008F77809380000DC084B58F7784BDBE
:100CD00009C08091B0008F7703C08091B0008F7DF4
:100CE0008093B000F0E0EE0FFF1FE458FF4FA59196
:100CF000B4918FB7F894EC91611103C020952E2325
:100D000001C02E2B2C938FBF0895BF92CF92DF92FC
:100D1000EF92FF920F931F93CF93DF93EC017C012F
:100D200029E1E20EF11C8B8D9C8DAD8DBE8D8F3F28
:100D30009F4FAF4FBF4F71F0C7010E943402811126
:100D400002C0B12C69C08FEF9FEFDC018B8F9C8FAD
:100D5000AD8FBE8FCE0105960E943402B82E8E0153
:100D6000015F1F4F882309F443C08BA19CA1ADA153
:100D7000BEA14497A105B10538F061E08C810E94C5
:100D80003906C7010E941A02CBA0DCA0EDA0FEA08C
:100D9000409188025091890260918A0270918B0281
:100DA00044515109610971094C155D056E057F05B6
:100DB00070F4411551056105710521F441E050E0E1
:100DC00060E070E04D8B5E8B6F8B788F0DC0C1142F
:100DD000D104E104F10421F4C12CD12C7601C39497
:100DE000CD8ADE8AEF8AF88EC8010E941A0214C0EA
:100DF000C8010E943402882309F4A3CF60E08C81EB
:100E00000E943906C7010E941A028FEF9FEFDC0192
:100E1000898B9A8BAB8BBC8B8B2DDF91CF911F91E4
:100E20000F91FF90EF90DF90CF90BF900895CF93F8
:100E3000DF93EC0160E08E890E9439068FEF9FEF0F
:100E4000DC018C839D83AE83BF838E879F87A88BB5
:100E5000B98BDF91CF910895CF93DF93EC01029688
:100E60000E941A0261E08E890E943906CE010C961A
:100E7000DF91CF910C941A02EF92FF920F931F9380
:100E8000CF938C0102960E943402C82FC8010C96A1
:100E90007C01CC2351F061E0F80186890E9439067B
:100EA000C7010E941A028C2F12C00E9434028823AC
:100EB00071F060E0F80186890E9439068FEF9FEF9C
:100EC000DC01F80186879787A08BB18B80E0CF91FA
:100ED0001F910F91FF90EF9008951F920F920FB600
:100EE0000F9211242F933F938F939F93AF93BF93B0
:100EF0008091D7019091D801A091D901B091DA01E8
:100F00003091D60123E0230F2D3720F40196A11D47
:100F1000B11D05C026E8230F0296A11DB11D209327
:100F2000D6018093D7019093D801A093D901B093B3
:100F3000DA018091DB019091DC01A091DD01B0919B
:100F4000DE010196A11DB11D8093DB019093DC01B0
:100F5000A093DD01B093DE01BF91AF919F918F917E
:100F60003F912F910F900FBE0F901F90189590E01A
:100F7000FC01EC55FF4F2491FC01E057FF4F849199
:100F8000882399F090E0880F991FFC01EA57FF4FE2
:100F9000A591B491FC01E458FF4F859194918FB7CE
:100FA000F894EC91E22BEC938FBF0895CF92DF92EF
:100FB000EF92FF920F931F93CF93DF936C017A010F
:100FC0008B01C0E0D0E0CE15DF0589F0D8016D912E
:100FD0008D01D601ED91FC910190F081E02DC601CB
:100FE0000995892B11F47E0102C02196ECCFC7012F
:100FF000DF91CF911F910F91FF90EF90DF90CF90F5
:101000000895009769F0FC0101900020E9F73197FD
:10101000AF01481B590BBC0183EE91E00C94D6073D
:1010200080E090E00895CF93DF930E940108EC01E7
:1010300088E891E00E9401088C0F9D1FDF91CF91FD
:1010400008958F929F92AF92BF920F931F93CF9369
:10105000DF93CDB7DEB7A1970FB6F894DEBF0FBE12
:10106000CDBF19A2423008F44AE08E010F5D1F4F38
:10107000842E912CA12CB12CA50194010E94A30FC8
:10108000E62FB901CA0101501109EA3014F4E05DFC
:1010900001C0E95CD801EC93232B242B252B61F7AD
:1010A000C8010E940108A1960FB6F894DEBF0FBEDA
:1010B000CDBFDF91CF911F910F91BF90AF909F90C7
:1010C0008F900895CF93DF93EC01CB01BA0120916B
:1010D00080023091810240918202509183020E94ED
:1010E000360F0E948D0E6BA37CA38DA39EA3DF9170
:1010F000CF91089502970C946208CF93DF93EC018F
:101100000E94CF01AB01BC01CE0105960E940D02E9
:101110008FEF9FEFDC018B8F9C8FAD8FBE8F898B04
:101120009A8BAB8BBC8BDF91CF91089502970C9477
:101130007D0821E0FC0184899589A689B7898F3FC4
:101140009F4FAF4FBF4F09F420E0822F089521E059
:10115000FC0186899789A08DB18D8F3F9F4FAF4F3E
:10116000BF4F09F420E0822F0895FC018FEF9FEF1D
:10117000DC01868B978BA08FB18F80A391A3A2A354
:10118000B3A31482158216821782108611861286E6
:10119000138611A610A681E090E095A784A7089574
:1011A00002970C94B508CF93DF93EC0144960E940C
:1011B0001A021C821D821E821F8280E090E0ADE038
:1011C000B3E488879987AA87BB8780E197E2A0E08C
:1011D000B0E08CA39DA3AEA3BFA3CE014E960E9408
:1011E0001A020E94CF016C877D878E879F8781E0DE
:1011F00090E099A788A782E090E09DA78CA7DF9157
:10120000CF91089502970C94D308CF92DF92EF927A
:10121000FF920F931F93CF93DF93EC0144960E94AC
:101220003402182F882309F4E5C01BA61AA628A5A6
:1012300039A52330310509F484C044F42130310547
:10124000B9F02230310509F44CC0D4C02530310545
:1012500009F4B6C00CF486C02730310509F0CAC0C5
:10126000E881F9810284F385E02DCE010995C2C0A1
:10127000CE014E960E943402082F882309F4BAC08A
:101280008FEF9FEFDC0188A399A3AAA3BBA3C88417
:10129000D984EA84FB8420E030E04CE053E4C701C9
:1012A000B6010E94310F87FD10C0E881F9810284E8
:1012B000F385E02DCE01099587E090E099A788A7F6
:1012C00083E090E09BA78AA70AC0CC82DD82EE82F1
:1012D000FF8282E090E099A788A71DA61CA6102F88
:1012E00089C020E030E040E85FE3688579858A8541
:1012F0009B850E941C0E20E030E042EA52E40E94EE
:10130000880E87FF04C0CE010E940E0473C080E4E3
:1013100097E7A0E0B0E08CA39DA3AEA3BFA3CE014E
:101320004E960E941A0280E090E0A2EAB2E48C831A
:101330009D83AE83BF83CE010E94AD0383E090E026
:101340003CC0CE014E960E943402882309F452C05C
:101350004FEF5FEFBA0148A359A36AA37BA324E030
:1013600030E045C020E030E040E85FE36885798503
:101370008A859B850E941C0E20E030E043E053E408
:101380000E94880E87FDBFCF80E89CEFAFEFBFEFD4
:101390008CA39DA3AEA3BFA3CE014E960E941A02BA
:1013A00080E090E0A3E0B3E48C839D83AE83BF83B1
:1013B000CE010E94AD0385E090E099A788A71AC0EE
:1013C000CE014E960E9434028823A1F04FEF5FEFCA
:1013D000BA0148A359A36AA37BA31C821D821E8263
:1013E0001F8222E030E03DA72CA726E030E039A79D
:1013F00028A7182F812FDF91CF911F910F91FF9078
:10140000EF90DF90CF90089502970C940509CF9349
:10141000DF93EC0164E170E080E090E00E949501D0
:1014200060E08C810E94390664E170E080E090E029
:101430000E9495018FEF9FEFDC018F839887A9872A
:10144000BA878B8F9C8FAD8FBE8F898B9A8BAB8B1E
:10145000BC8BDF91CF91089502970C94070A789482
:1014600084B5826084BD84B5816084BD85B58260A9
:1014700085BD85B5816085BD80916E00816080935A
:101480006E001092810080918100826080938100C3
:1014900080918100816080938100809180008160D3
:1014A000809380008091B10084608093B10080912E
:1014B000B00081608093B00080917A008460809356
:1014C0007A0080917A00826080937A0080917A001D
:1014D000816080937A0080917A00806880937A009E
:1014E0001092C100E091F301F091F40182E0808359
:1014F000E091EF01F091F0011082E091F101F091A3
:10150000F20180E180831092FB01E091F701F091FC
:10151000F80186E08083E091F501F091F601808189
:1015200080618083E091F501F091F601808188600F
:101530008083E091F501F091F601808180688083DD
:10154000E091F501F091F60180818F7D80838BE839
:1015500091E00E94130880ED97E0A0E0B0E0809356
:10156000140390931503A0931603B093170388EE0A
:1015700093E0A0E0B0E080931E0390931F03A0933C
:101580002003B09321038CE093E00E942C078EEDA2
:1015900092E00E94D3088CE892E00E94E204CC24FE
:1015A000CA94DC2C760198EC892E912CA12CB12CBC
:1015B0000E94CF016093DF017093E0018093E1010D
:1015C0009093E20183E293E00E9485068CE093E031
:1015D0000E943C078CE892E00E941E05882351F08F
:1015E0008091D8029091D902019721F081E991E090
:1015F0000E9413088EED92E00E940509882309F4E9
:1016000069C080910803909109038230910529F106
:101610008330910509F441C0019709F05BC089EA64
:1016200091E00E941308C0921003D0921103E0923F
:101630001203F092130380921E0390921F03A09254
:101640002003B092210361E0809122030E943906B9
:1016500088E193E00E941A023DC08FEF9FEFDC010A
:101660008093100390931103A0931203B09313037C
:1016700088EB9BE0A0E0B0E080931E0390931F03F3
:10168000A0932003B093210361E0809122030E9484
:10169000390688E193E00E941A0288E893E1A0E00D
:1016A000B0E08093140390931503A0931603B093B6
:1016B000170388EB9BE0A0E0B0E080931E039093BB
:1016C0001F03A0932003B093210386EC91E00E94B6
:1016D0001308FFCF0E9466016BCF4F925F926F920B
:1016E0007F928F929F92AF92BF92CF92DF92EF92B2
:1016F000FF92CF93DF931092E6011092E50198EEEE
:10170000892E93E0992EA12CB12C8092E701909222
:10171000E801A092E901B092EA0184E091E090939F
:10172000E4018093E30185EC90E09093F0018093D5
:10173000EF0184EC90E09093F2018093F10180EC52
:1017400090E09093F4018093F30181EC90E090930A
:10175000F6018093F50182EC90E09093F80180937C
:10176000F70186EC90E09093FA018093F9011092D2
:10177000FC011092FD011092FE011092FF01809277
:10178000880290928902A0928A02B0928B0280E035
:1017900090E0AAEFB3E480934A0390934B03A093A5
:1017A0004C03B0934D0380E090E0A0E0BFE3809352
:1017B000800290938102A0938202B0938302809270
:1017C0004E0390924F03A0925003B0925103809227
:1017D000520390925303A0925403B092550389E8A8
:1017E00098E8A8E0BDE38093840290938502A093DB
:1017F0008602B093870284E891E090935703809328
:101800005603109258031092590310925A031092E3
:101810005B038CE691E090932403809323038AE793
:1018200091E09093260380932503CAE5D1E0D093FD
:101830002903C0932803412C512C32014394409238
:101840002E0350922F036092300370923103CC2408
:10185000CA94DC2C7601C0922A03D0922B03E0922A
:101860002C03F0922D03D0933303C09332034092A4
:1018700038035092390360923A0370923B03C0924E
:101880003403D0923503E0923603F0923703D093BD
:101890003D03C0933C034092420350924303609245
:1018A000440370924503C0923E03D0923F03E092FE
:1018B0004003F092410382E0809327030E94B70720
:1018C00060E0809127030E94390680922E03909257
:1018D0002F03A0923003B09231031092460310926E
:1018E0004703109248031092490384E190E0A0E07E
:1018F000B0E08093420390934303A0934403B093DA
:101900004503C0922A03D0922B03E0922C03F0925D
:101910002D03C0923E03D0923F03E0924003F09229
:101920004103C0923403D0923503E0923603F09223
:1019300037038EE491E090930D0380930C03D093D2
:101940000F03C0930E03409214035092150360924C
:10195000160370921703C0921003D0921103E09205
:101960001203F0921303D0931903C093180340920B
:101970001E0350921F036092200370922103C092B5
:101980001A03D0921B03E0921C03F0921D038DE01A
:10199000809322030E94B70760E0809122030E9497
:1019A00039068CE093E00E94170780E391E0909362
:1019B000DF028093DE0282E491E09093E102809363
:1019C000E002D093F302C093F202C092F402D092EC
:1019D000F502E092F602F092F702D093FD02C09376
:1019E000FC0240920203509203036092040370923F
:1019F0000503C092FE02D092FF02E0920003F09233
:101A000001038092F8029092F902A092FA02B09239
:101A1000FB028EED92E00E94B50884E291E0909383
:101A20008D0280938C02D0938F02C0938E02C0925D
:101A30009002D0929102E0929202F092930285E29B
:101A400093E0909399028093980280ED92E09093B6
:101A5000A9028093A80284ED92E09093AB02809358
:101A6000AA028AEC92E09093AD028093AC021092AD
:101A7000B2021092B3021092B4021092B502C0905A
:101A8000CA02D090CB02E090CC02F090CD0220E0D0
:101A900030E04FE753E4C701B6010E94310F18163A
:101AA0006CF480E090E0AFE7B3E48093CA029093D7
:101AB000CB02A093CC02B093CD0211C020E030E065
:101AC000A901C701B6010E94880E87FF08C01092C5
:101AD000CA021092CB021092CC021092CD0280E08A
:101AE00090E0AAEFB3E48093BA029093BB02A09374
:101AF000BC02B093BD0280E090E0A0E8BFE3809319
:101B00009C0290939D02A0939E02B0939F028CE151
:101B100091E090939B0280939A0286E593E09093E4
:101B2000CF028093CE028EED92E09093DD028093FF
:101B3000DC021092D0021092D1021092D2021092C6
:101B4000D30288EE93E0A0E0B0E0809394029093FB
:101B50009502A0939602B0939702812C912C8AE76C
:101B6000A82E84E4B82E8092B6029092B702A0927A
:101B7000B802B092B902C090CA02D090CB02E090F5
:101B8000CC02F090CD02A5019401C701B6010E94DC
:101B9000310F18164CF48092CA029092CB02A09298
:101BA000CC02B092CD0211C020E030E0A901C70103
:101BB000B6010E94880E87FF08C01092CA021092D8
:101BC000CB021092CC021092CD0280E090E0A0E80F
:101BD000BFE38093A0029093A102A093A202B093CE
:101BE000A3028093A4029093A502A093A602B093AF
:101BF000A70288EE93E0A0E0B0E08093AE0290935D
:101C0000AF02A093B002B093B1021092DB02109227
:101C1000DA028CE892E0DF91CF91FF90EF90DF90B5
:101C2000CF90BF90AF909F908F907F906F905F907C
:101C30004F900C94C8045058BB27AA270E94330E1B
:101C40000C94F70E0E94E90E38F00E94F00E20F07E
:101C500039F49F3F19F426F40C94E60E0EF4E09547
:101C6000E7FB0C94E00EE92F0E94080F58F3BA1717
:101C7000620773078407950720F079F4A6F50C94A2
:101C80002A0F0EF4E0950B2EBA2FA02D0B01B901EF
:101C900090010C01CA01A0011124FF27591B99F0E2
:101CA000593F50F4503E68F11A16F040A22F232FEE
:101CB000342F4427585FF3CF469537952795A7953E
:101CC000F0405395C9F77EF41F16BA0B620B730BE5
:101CD000840BBAF09150A1F0FF0FBB1F661F771F56
:101CE000881FC2F70EC0BA0F621F731F841F48F40B
:101CF000879577956795B795F7959E3F08F0B0CF94
:101D00009395880F08F09927EE0F9795879508957A
:101D10000E94BC0E08F481E008950E94100F88F024
:101D20009F5798F0B92F9927B751B0F0E1F0660F9F
:101D3000771F881F991F1AF0BA95C9F714C0B130E0
:101D400091F00E942A0FB1E008950C942A0F672F9A
:101D5000782F8827B85F39F0B93FCCF3869577950F
:101D60006795B395D9F73EF49095809570956195F8
:101D70007F4F8F4F9F4F0895990F0008550FAA0B63
:101D8000E0E8FEEF16161706E807F907C0F012168E
:101D90001306E407F50798F0621B730B840B950B91
:101DA00039F40A2661F0232B242B252B21F40895E6
:101DB0000A2609F4A140A6958FEF811D811D089583
:101DC00097F99F6780E870E060E008959FEF80ECEE
:101DD000089500240A941616170618060906089591
:101DE00000240A9412161306140605060895092EF7
:101DF0000394000C11F4882352F0BB0F40F4BF2B66
:101E000011F460FF04C06F5F7F4F8F4F9F4F0895A5
:101E100057FD9058440F551F59F05F3F71F047959B
:101E2000880F97FB991F61F09F3F79F08795089580
:101E3000121613061406551FF2CF4695F1DF08C09F
:101E4000161617061806991FF1CF869571056105BC
:101E500008940895E894BB2766277727CB0197F964
:101E600008950E94BC0E08F48FEF08950E94490F58
:101E70000C94F70E0E94E90E38F00E94F00E20F04C
:101E8000952311F00C94E00E0C94E60E11240C94A2
:101E90002B0F0E94080F70F3959FC1F3950F50E030
:101EA000551F629FF001729FBB27F00DB11D639F0C
:101EB000AA27F00DB11DAA1F649F6627B00DA11DB2
:101EC000661F829F2227B00DA11D621F739FB00D58
:101ED000A11D621F839FA00D611D221F749F3327C8
:101EE000A00D611D231F849F600D211D822F762F61
:101EF0006A2F11249F5750409AF0F1F088234AF03E
:101F0000EE0FFF1FBB1F661F771F881F91505040A9
:101F1000A9F79E3F510580F00C94E00E0C942B0F16
:101F20005F3FE4F3983ED4F3869577956795B79530
:101F3000F795E7959F5FC1F7FE2B880F911D96954A
:101F4000879597F90895A1E21A2EAA1BBB1BFD01E4
:101F50000DC0AA1FBB1FEE1FFF1FA217B307E40788
:101F6000F50720F0A21BB30BE40BF50B661F771FE0
:101F7000881F991F1A9469F76095709580959095C0
:101F80009B01AC01BD01CF010895EE0FFF1F05902D
:101F9000F491E02D099481E090E0F8940C94D00F36
:041FA000F894FFCFE3
:101FA40000000000FD00D607C600A400B8004401EC
:101FB400000000001C051C05000000006002560221
:101FC400000000001E05E204C804BA04000000007A
:101FD4008F045F048B040509D308B508A708FEFF26
:101FE4000000040A0209D0089908000000003C0718
:101FF4002C0717070E050000000034021A028700A0
:10200400FF010D029000DB010000000085067D0841
:10201400070A8B036208FEFF00007A0896082C0A60
:1020240000000000990309000D0A00535441525462
:10203400004675726E616365206973204E4F5420AB
:10204400576F726B696E6720004E6F7420456E6F18
:102054007567682054656D70657261747572655535
:102064007077617264005374617274757020466194
:06207400696C7572650045
:107800000C94343C0C94513C0C94513C0C94513CE1
:107810000C94513C0C94513C0C94513C0C94513CB4
:107820000C94513C0C94513C0C94513C0C94513CA4
:107830000C94513C0C94513C0C94513C0C94513C94
:107840000C94513C0C94513C0C94513C0C94513C84
:107850000C94513C0C94513C0C94513C0C94513C74
:107860000C94513C0C94513C11241FBECFEFD8E036
:10787000DEBFCDBF11E0A0E0B1E0ECE9FFE702C060
:1078800005900D92A230B107D9F712E0A2E0B1E065
:1078900001C01D92AD30B107E1F70E942D3D0C945F
:1078A000CC3F0C94003C982F959595959595959582
:1078B000905D8F708A307CF0282F295A8091C0000B
:1078C00085FFFCCF9093C6008091C00085FFFCCF60
:1078D0002093C6000895282F205DF0CF982F809127
:1078E000C00085FFFCCF9093C6000895EF92FF92F1
:1078F0000F931F93EE24FF2487018091C00087FD22
:1079000017C00894E11CF11C011D111D81E4E8164B
:1079100082E4F8068FE0080780E0180770F3E09132
:107920000401F091050109958091C00087FFE9CF1E
:107930008091C6001F910F91FF90EF9008950E94D3
:10794000763C982F8091C00085FFFCCF9093C600B5
:1079500091362CF490330CF09053892F089597555D
:10796000892F08951F930E949F3C182F0E949F3CCF
:107970001295107F810F1F9108951F93182F882350
:1079800021F00E94763C1150E1F71F9108951F935A
:10799000182F0E94763C803249F0809103018F5F5E
:1079A000809303018530C1F01F9108958091C0003C
:1079B00085FFFCCF84E18093C6008091C00085FFE5
:1079C000FCCF1093C6008091C00085FFFCCF80E102
:1079D0008093C6001F910895E0910401F091050184
:1079E00009951F9108950E94763C803241F0809164
:1079F00003018F5F80930301853081F008958091AA
:107A0000C00085FFFCCF84E18093C6008091C00058
:107A100085FFFCCF80E18093C6000895E0910401CA
:107A2000F09105010995089540E951E08823A1F0FE
:107A30002D9A28EE33E0FA013197F1F721503040CA
:107A4000D1F72D9828EE33E0FA013197F1F7215064
:107A50003040D1F7815061F708953F924F925F9285
:107A60006F927F928F929F92AF92BF92CF92DF924E
:107A7000EF92FF920F931F93CF93DF93000080E16B
:107A80008093C4001092C50088E18093C10086E015
:107A90008093C2005098589A259A81E00E94143D24
:107AA00024E1F22E9EE1E92E85E9D82E0FE0C02ECA
:107AB00010E1B12EAA24A394B1E49B2EA6E58A2E50
:107AC000F2E57F2EE0E26E2E79E4572E63E5462E36
:107AD00050E5352E0E94763C8033B1F18133B9F107
:107AE000803409F46FC0813409F476C0823409F41B
:107AF00085C0853409F488C0803531F1823521F1A3
:107B0000813511F1853509F485C0863509F48DC0BC
:107B1000843609F496C0843709F403C1853709F423
:107B200072C1863709F466C0809103018F5F80932C
:107B30000301853079F6E0910401F0910501099582
:107B40000E94763C803351F60E94F33CC3CF0E94E2
:107B5000763C803249F78091C00085FFFCCFF092DF
:107B6000C6008091C00085FFFCCF9092C600809136
:107B7000C00085FFFCCF8092C6008091C00085FFC9
:107B8000FCCF7092C6008091C00085FFFCCF609250
:107B9000C6008091C00085FFFCCF5092C600809146
:107BA000C00085FFFCCF4092C6008091C00085FFD9
:107BB000FCCF3092C6008091C00085FFFCCFB09210
:107BC000C60088CF0E94763C863808F4BDCF0E945C
:107BD000763C0E94F33C7ECF0E94763C803809F4CC
:107BE0009CC0813809F40BC1823809F43CC1883942
:107BF00009F48FC080E00E94C73C6CCF84E10E94F2
:107C0000BD3C0E94F33C66CF85E00E94BD3C0E94D3
:107C1000F33C60CF0E94763C809306010E94763C44
:107C2000809307010E94F33C55CF0E94763C80333D
:107C300009F41DC183E00E94BD3C80E00E94C73C66
:107C400049CF0E94763C809309020E94763C809343
:107C5000080280910C028E7F80930C020E94763C79
:107C6000853409F415C18091080290910902892B8D
:107C700089F000E010E00E94763CF801E85FFE4FDA
:107C800080830F5F1F4F80910802909109020817AF
:107C9000190788F30E94763C803209F045CF809125
:107CA0000C0280FF01C16091060170910701660F0F
:107CB000771F7093070160930601A0910802B091AD
:107CC00009021097C9F0E8E0F1E09B01AD014E0F09
:107CD0005F1FF999FECF32BD21BD819180BDFA9A17
:107CE000F99A2F5F3F4FE417F50799F76A0F7B1F4B
:107CF00070930701609306018091C00085FFFCCF5F
:107D0000F092C6008091C00085FFFCCFB092C60003
:107D1000E1CE83E00E94C73CDDCE82E00E94C73CFA
:107D2000D9CE0E94763C809309020E94763C8093D3
:107D300008028091060190910701880F991F909386
:107D40000701809306010E94763C853409F4A6C0A1
:107D500080910C028E7F80930C020E94763C8032D0
:107D600009F0B8CE8091C00085FFFCCFF092C6002C
:107D7000609108027091090261157105B9F140E046
:107D800050E080910C02A82FA170B82FB27011C0E2
:107D9000BB2309F45CC0E0910601F0910701319624
:107DA000F0930701E09306014F5F5F4F46175707B7
:107DB000E8F4AA2369F3F999FECF209106013091E6
:107DC000070132BD21BDF89A90B58091C00085FFB2
:107DD000FCCF9093C6002F5F3F4F30930701209355
:107DE00006014F5F5F4F4617570718F38091C00099
:107DF00085FDE5CE8091C00085FFF8CFE0CE81E023
:107E00000E94C73C67CE0E94763C803209F08CCE3F
:107E10008091C00085FFFCCFF092C6008091C00029
:107E200085FFFCCFE092C6008091C00085FFFCCFAB
:107E3000D092C6008091C00085FFFCCFC092C600E2
:107E40008091C00085FFFCCFB092C60043CEE09188
:107E50000601F091070194918091C00085FFFCCF4D
:107E60009093C6009CCF80E10E94C73C33CE0E9415
:107E7000763C0E94763C182F0E94763C112309F430
:107E800083C0113009F484C08FE00E94C73C22CE29
:107E900080910C02816080930C02E5CE80910C02EF
:107EA000816080930C0259CF809107018823880F4D
:107EB000880B8A2180930B02809106019091070123
:107EC000880F991F90930701809306018091080203
:107ED00080FF09C080910802909109020196909359
:107EE000090280930802F894F999FECF1127E091D6
:107EF0000601F0910701C8E0D1E08091080290915D
:107F00000902103091F40091570001700130D9F34B
:107F100003E000935700E89500915700017001308D
:107F2000D9F301E100935700E89509901990009169
:107F3000570001700130D9F301E000935700E89534
:107F40001395103498F011270091570001700130FB
:107F5000D9F305E000935700E895009157000170B0
:107F60000130D9F301E100935700E895329602976A
:107F700009F0C7CF103011F00296E5CF112480919F
:107F8000C00085FFB9CEBCCE8EE10E94C73CA2CD19
:0C7F900085E90E94C73C9ECDF894FFCF0D
:027F9C00800063
:040000030000780081
:00000001FF