:100000000C946A000C9492000C9492000C94920050
:100010000C9492000C9492000C9492000C94920018
:100020000C9492000C9492000C9492000C94920008
:100030000C9492000C9492000C9492000C949200F8
:100040000C94E5100C9492000C94D4130C940614A8
:100050000C9492000C9492000C9492000C949200D8
:100060000C9492000C949200BF07BF071907510728
:1000700065079207BF0700000008000201000003A7
:100080000407000000000000000001020408102026
:10009000408001020408102001020408102004041A
:1000A0000404040404040202020202020303030320
:1000B00003030000000023002600290000000000C8
:1000C000250028002B0000000000240027002A0043
:1000D0009400361411241FBECFEFD8E0DEBFCDBF91
:1000E00012E0A0E0B1E0E2EFF1E302C005900D9272
:1000F000AC32B107D9F723E0ACE2B2E001C01D9207
:10010000AB39B207E1F710E0C4EDD0E004C02297AC
:10011000FE010E94D418C03DD107C9F70E947A148D
:100120000C94F7180C940000AF92CF92EF920F93BB
:100130002CE04BE06DE080EF92E00E94BD0886E08D
:10014000A82E97E0C92E25E0E22E08E024E049E041
:1001500063E088ED92E00E94B40228ED32E040EFC7
:1001600052E062E086E692E00E94C5086EE083E518
:1001700092E00E94E40C40E061E186E492E00E949B
:10018000A80D40E060E189E392E00E94A80D40E004
:100190006FE08CE292E00F91EF90CF90AF900C94D3
:1001A000A80D86E692E00E94BC0926E040E052ECF1
:1001B00061E070E08EEF92E00E9472136DE371E0F7
:1001C0008EEF92E00E94D41448EE53E060E070E0BD
:1001D00083E592E00E94070D86E692E00C94EC0D18
:1001E0000F931F9383E592E00E945D0D86E692E0F7
:1001F0000E94FD0D882309F440C086E692E00E942B
:10020000F10886E692E00E94B205823041F448ECA3
:1002100050E060E070E083E592E00E94070D86E622
:1002200092E00E94AD05863041F504EF11E020E038
:1002300030E048EB5BE060E070E083E592E00E9434
:10024000F90C83E592E00E94490889E392E00E945C
:10025000C40D811109C083E592E00E945D0D86E620
:1002600092E00E94FD0DF1CF83E592E00E94A80884
:1002700086E692E00E94FD0DFBCF86E492E00E94AC
:10028000C40D882321F086E692E00E94C00C8CE227
:1002900092E00E94C40D882321F086E692E00E943D
:1002A0009C0C89E392E00E94C40D882331F086E61D
:1002B00092E01F910F910C9486091F910F91089560
:1002C000CF93DF93EC0160E08E810E942E1281E0DB
:1002D00090E00E94861161E08E810E942E1281E0E2
:1002E00090E00E94861160E08E810E942E1284E6CA
:1002F00090E0DF91CF910C948611EF92FF920F93D3
:100300001F93CF93DF938C01C0E0D0E0E62EF12C59
:10031000B7010C2E02C0759567950A94E2F76170DB
:10032000F801EC0FFD1F87810E942E122196C43028
:10033000D10571F7C801DF91CF911F910F91FF9007
:10034000EF900C946001EF92FF920F931F93CF9365
:10035000DF938C01C0E0D0E0E62EF12CB7010C2E2B
:1003600002C0759567950A94E2F76170F801EC0F89
:10037000FD1F87810E942E122196C830D10571F78A
:10038000C801DF91CF911F910F91FF90EF900C94D6
:1003900060011F93CF93DF93EC01162F642F8C81A4
:1003A0000E942E128D818F3F19F060E00E942E1264
:1003B0008F85612F84FF06C0CE01DF91CF911F9101
:1003C0000C94A30170E084E0759567958A95E1F738
:1003D000CE010E947D01612FCE01DF91CF911F914F
:1003E0000C947D0140E00C94C90161E00E94F2018F
:1003F00080ED97E00C948611443008F043E0FC0156
:100400002389421710F04FEF420FFC01E40FF11D5A
:100410002489260F2068622F0C94F201FC01608968
:10042000262F2460208B6C600C94F2010F931F9395
:10043000CF93DF93EC01423018F08F8588608F876F
:100440004B8B1C8A80E48D8B6E8B70E0605C7F4FE1
:100450006F8B222329F0413019F48F8584608F87B8
:1004600061E08C810E94F5118D818F3F19F061E070
:100470000E94F51161E08E810E94F51100E010E00C
:100480008F8584FF03C088E090E002C084E090E0A4
:100490000817190754F4FE01E00FF11F61E087818E
:1004A0000E94F5110F5F1F4FEBCF80E593EC0E9488
:1004B000861160E08C810E942E1260E08E810E9485
:1004C0002E128D818F3F19F060E00E942E126F85F1
:1004D00064FD1DC063E0CE010E947D0184E991E1CD
:1004E0000E94861163E0CE010E947D0184E991E1C2
:1004F0000E94861163E0CE010E947D0186E990E0B2
:100500000E94861162E0CE010E947D0116C06062E9
:10051000CE010E94F20184E991E10E9486116F856B
:100520006062CE010E94F20186E990E00E9486118D
:100530006F856062CE010E94F2016F856062CE011C
:100540000E94F20184E0888BCE010E940E02CE014F
:100550000E94F50182E0898B66E0CE01DF91CF91A8
:100560001F910F910C94F201AF92CF92EF920F93E3
:10057000FC011382128284E091E091838083648382
:10058000458326830783E086C186A2861386148668
:1005900015861686178620E041E060E1CF010F91B5
:1005A000EF90CF90AF900C94160241E00E94C901E9
:1005B00081E090E00895CF93DF93EC01842F68836E
:1005C0004A83298361E00E94F51161E088810E94DD
:1005D000F51160E089810E94F51161E08A81DF9167
:1005E000CF910C942E12DF92EF92FF920F931F93F4
:1005F000CF93DF938C01D12CC7E0D0E0EE24E394BD
:10060000F12C60E0F80180810E942E128FE99FE0BA
:100610000197F1F700C00000F80181810E94641287
:10062000892B39F097010C2E01C0220F0A94EAF7AA
:10063000D22A61E0F80180810E942E128FE99FE0AA
:100640000197F1F700C000002197D8F68D2DDF91BA
:10065000CF911F910F91FF90EF90DF9008950F932E
:100660001F93CF93DF93EC0160E08A810E942E12EA
:100670008FE99FE00197F1F700C00000CE010E94D2
:10068000F302082F10E0102F0027CE010E94F30282
:10069000082B61E08A810E942E1202FD11C0B80170
:1006A00093E0769567959A95E1F780E090E00E9457
:1006B000931720E030E040E85EE30E94491804C050
:1006C00060E070E080EC9FE7DF91CF911F910F9188
:1006D0000895FC014283538364837583089521E068
:1006E000FC0142815381648175814F3F5F4F6F4FA1
:1006F0007F4F09F420E0822F0895CF93DF93EC0120
:100700000E942F1168517C4F8F4F9F4F6A837B83CC
:100710008C839D831B861C861D861E864FEF5FEF94
:10072000BA014F83588769877A87DF91CF910895FF
:10073000CF92DF92EF92FF920F931F93CF93DF93AD
:10074000EC014A835B836C837D83CA80DB80EC8011
:10075000FD800E942F110A811B812C813D816C1527
:100760007D058E059F0548F008511C4F2F4F3F4FC8
:100770000A831B832C833D83E8CF4F855889698981
:100780007A89400F511F621F731F4F8358876987F3
:100790007A87DF91CF911F910F91FF90EF90DF90BB
:1007A000CF9008950F931F93FC01E15BFF4F4083AF
:1007B0005183628373838A019B0108511C4F2F4F21
:1007C0003F4FFC01028313832483358344525A4FE5
:1007D0006F4F7F4F06961F910F910C949803CF9304
:1007E000DF93EC0164E170E080E090E00E945E1134
:1007F00060E08E810E942E124FEF5FEFBA014A83B4
:100800005B836C837D834B875C876D877E87DF91FD
:10081000CF910895CF93DF93EC0106960E94EF03EA
:10082000FE01ED59FF4F10824FEF5FEFBA014A838F
:100830005B836C837D83DF91CF910895CF93DF93AA
:10084000EC01862F2CE031E0398328836E8361E050
:100850000E94F51160E08E810E942E124FEF5FEF33
:10086000BA014A835B836C837D834B875C876D878A
:100870007E87DF91CF9108950F931F93CF93DF93DE
:10088000EC010E942F110A811B812C813D810617EA
:1008900017072807390748F408511C4F2F4F3F4FBF
:1008A0000A831B832C833D83EECFDF91CF911F9171
:1008B0000F910895CF92DF92EF92FF920F931F93C3
:1008C000CF93DF93EC010E942F116B017C014B85CC
:1008D0005C856D857E854C155D056E057F0508F090
:1008E00065C04A815B816C817D81C416D506E606B0
:1008F000F706D0F14F85588969897A8945315105C4
:100900006105710520F061E08E810E942E124F85F5
:10091000588969897A890A811B812C813D81453DED
:1009200083E058076105710548F00C521C4F2F4FAA
:100930003F4F0F83188729873A8708C0400F511F00
:10094000621F731F4F83588769877A87CE010E9481
:100950003C0484E1C80ED11CE11CF11CCB86DC8672
:10096000ED86FE8681E023C04F81588569857A85B2
:10097000C416D506E606F706C8F060E08E810E9430
:100980002E124F81588569857A8548515C4F6F4F8B
:100990007F4F4F83588769877A8784E1C80ED11CBF
:1009A000E11CF11CCB86DC86ED86FE8680E0DF91C3
:1009B000CF911F910F91FF90EF90DF90CF9008950E
:1009C0006F927F928F929F92AF92BF92CF92DF925F
:1009D000EF92FF920F931F93CF93DF93EC014A01A5
:1009E0008AE191E099838883CE0106960E941E04D5
:1009F0009E012F5B3F4FAE014B5B5F4F3E018BE58E
:100A0000680E711C1F921F921F921F92A12CB12C75
:100A100080EAC82E80E4D82EE12CF12C0AEF13E4F2
:100A2000B301CE0149960E94B510FE01E95AFF4F6D
:100A30001082118212821382F301108211821282BB
:100A40001382349610821182128213827097108260
:100A500011821282138234961082118212821382C2
:100A6000389710821182128213828FEF9FEFDC0180
:100A70008A839B83AC83BD837896108231961082E3
:100A8000C75BDF4F998288820F900F900F900F9075
:100A9000DF91CF911F910F91FF90EF90DF90CF905A
:100AA000BF90AF909F908F907F906F900895CF925E
:100AB000DF92EF92FF920F931F93CF93DF93EC019E
:100AC000FC01E75BFF4F80819181DC01ED91FC919E
:100AD0000190F081E02D09956B017C018E01015A96
:100AE0001F4FF80160837183828393839B01AC0164
:100AF0000E94AC18FE01E95AFF4F882351F0808113
:100B00009181A281B381F80180839183A283B38311
:100B100004C0C082D182E282F382C55ADF4FD8017D
:100B20002D913D914D915C91688179818A819B8164
:100B30000E94921620E030E040E05FE30E944918F6
:100B4000688379838A839B83DF91CF911F910F9173
:100B5000FF90EF90DF90CF9008958D599F4FFC014B
:100B600080810895FC01EC59FF4F80811082089527
:100B70000F931F93CF93DF938C01EC01CD5ADF4F7E
:100B8000188219821A821B820E942F11688379832E
:100B90008A839B83F801ED59FF4F2081223059F45D
:100BA000DC01CB01805C9848A44EBF4F88839983B9
:100BB000AA83BB8302C0253058F4488159816A81D9
:100BC0007B81535262497F4F488359836A837B8379
:100BD000F801E55AFF4F208131814281538160E065
:100BE00070E083E093E40E94911625E63FEC4BE031
:100BF00058E30E94FA160E946717088119812A811A
:100C00003B81600F711F821F931F688379838A83E2
:100C10009B83DF91CF911F910F9108959F92AF9287
:100C2000BF92CF92DF92EF92FF920F931F93CF93D9
:100C3000DF93EC018C01055A1F4FD8011D921D92C4
:100C40001D921C92139725E0922E5C01B9E4AB0E25
:100C5000B11CF50180819181DC01ED91FC91019045
:100C6000F081E02D09956B017C019B01AC010E9494
:100C7000AC188111EECFA7019601F8016081718156
:100C8000828193810E949216D8016D937D938D93FA
:100C90009C93139768EC70E080E090E00E945E11F6
:100CA0009A94B9F62DEC3CEC4CE45EE3F8016081DB
:100CB0007181828193810E944918D8016D937D933F
:100CC0008D939C931397FE01E95AFF4F60837183C4
:100CD00082839383769760837183828393837E017B
:100CE000B9E1EB0EF11C00E010E02AEF33E440E044
:100CF00050E0BA01C7010E94B60F68EE73E0C70169
:100D00000E946710CE0106960E947D03E881F9815A
:100D1000068117810E942F11AB01BC01CE01F801A1
:100D20000995FE01ED59FF4F82E08083CE01DF91EE
:100D3000CF911F910F91FF90EF90DF90CF90BF90D8
:100D4000AF909F900C94B8058F929F92AF92BF92F4
:100D5000CF92DF92EF92FF920F931F93CF93DF9387
:100D6000EC018C010F5B1F4F29E838E848E05DE398
:100D7000F80160817181828193810E9492164B01FA
:100D80005C01F80160837183828393837A9620E00B
:100D900030E040E85FE360817181828193810E944D
:100DA00092166B017C019B01AC01C501B4010E944C
:100DB00045181816CCF4FE01EC59FF4F82E08083F1
:100DC000F801C082D182E282F382CE01DF91CF911D
:100DD0001F910F91FF90EF90DF90CF90BF90AF9059
:100DE0009F908F900C94B805DF91CF911F910F9138
:100DF000FF90EF90DF90CF90BF90AF909F908F903B
:100E00000895CF92DF92EF92FF920F931F93CF93AB
:100E1000DF93EC018C010D591F4FF801808190E0A8
:100E20008730910508F09DC0FC01EC5CFF4F0C94ED
:100E3000D21820E030E040E85FE3FE01E55AFF4FC2
:100E400060817181828193810E94921620E030E05E
:100E500042EA52E40E94F61687FF0BC0CE01DF91F2
:100E6000CF911F910F91FF90EF90DF90CF900C9456
:100E7000A406CE010E94B8050E942F11FE01E55B79
:100E8000FF4F6083718382839383CF5BDF4F80E06A
:100E900090E0A2EAB2E488839983AA83BB8383E0CB
:100EA0006CC00E942F11C55BDF4FC880D980EA80DB
:100EB000FB806C197D098E099F09603477478B414F
:100EC000910508F45CC084E058C020E030E040E8C0
:100ED0005FE3FE01E55AFF4F60817181828193815A
:100EE0000E94921620E030E043E053E40E94F616A0
:100EF00087FDB4CFCE010E94B8050E942F11FE01DC
:100F0000E55BFF4F6083718382839383CF5BDF4F09
:100F100080E090E0A3E0B3E488839983AA83BB8355
:100F200085E02BC00E942F11FE01E55BFF4FC080C2
:100F3000D180E280F3806C197D098E099F096115CB
:100F40007D4D8D469105D8F0FE01EF5BFF4F10827D
:100F5000118212821382CE0106960E94EF0386E070
:100F60000CC0E881F9810480F581E02DCE0109955E
:100F7000CC59DF4F81E088838AE0F8018083DF91DC
:100F8000CF911F910F91FF90EF90DF90CF90089538
:100F90000F931F93CF93DF93EC010E942F110A81CF
:100FA0001B812C813D81061717072807390748F454
:100FB00008511C4F2F4F3F4F0A831B832C833D83C7
:100FC000EECFDF91CF911F910F9108950F931F9353
:100FD000CF93DF93EC010E942F110A811B812C819A
:100FE0003D81601771078207930710F1CE010E94BF
:100FF0005705CE010E940107FE01ED59FF4F808188
:10100000863089F0CE0149960E94430EFE01EB5BCB
:10101000FF4F60817181828193810E9467176D8B80
:101020007E8B8F8B988FCE010E94C80781E005C010
:10103000CE0106960E945A0480E0DF91CF911F9165
:101040000F9108954FEF5FEFBA01FC014283538384
:10105000648375830895FC01468357836087718795
:1010600008950F931F93CF93DF93EC010E942F11EC
:101070000E811F8128853985600F711F821F931F84
:101080006A837B838C839D83DF91CF911F910F9126
:1010900008950F931F93CF93DF93EC010E942F11BC
:1010A0000A851B852C853D85600F711F821F931F4C
:1010B0006A837B838C839D830E851F85288939896C
:1010C000060F171F281F391F0E831F832887398794
:1010D000DF91CF911F910F910895CF92DF92EF9200
:1010E000FF920F931F93CF93DF93EC010E942F1178
:1010F0000A811B812C813D810617170728073907B4
:10110000D0F40E942F110A811B812C813D8106178A
:1011100017072807390768F4CE80DF80E884F98450
:10112000C00ED11EE21EF31ECA82DB82EC82FD825B
:10113000EACF81E001C080E0DF91CF911F910F9154
:10114000FF90EF90DF90CF90089502960C942F03BC
:10115000CF93DF93EC0160E08A890E942E124FEF5B
:101160005FEFBA014A835B836C837D834E835F8329
:1011700068877987DF91CF910895EDEDF1E0DC018B
:10118000ED93FD93CD010C94DB020F931F93CF934E
:10119000DF93EC0189010E94E00483EE91E09983E2
:1011A0008883FE01EA59FF4FDE01A859BF4F1D9207
:1011B0001D921D921C92139714961D921D921D92C2
:1011C0001C9213978DEC91E091838083319710826C
:1011D000C059DF4F19830883DF91CF911F910F9181
:1011E0000895CF93DF93EC010E942F1128EE33E096
:1011F00040E050E00E94B018BA01A9012AE030E0B6
:101200008EEF92E00E94891564E271E08EEF92E029
:101210000E94C714FE01E15AFF4F40815181628153
:10122000738122E030E08EEF92E00E948E1664E23D
:1012300071E08EEF92E00E94C714FE01E55AFF4F65
:10124000408151816281738122E030E08EEF92E033
:101250000E948E1664E271E08EEF92E00E94C71445
:10126000FE01EF5BFF4F408151816281738122E07B
:1012700030E08EEF92E00E948E1664E271E08EEF15
:1012800092E00E94C714FE01ED59FF4F4AE050E082
:1012900060818EEF92E00E94961564E271E08EEF1D
:1012A00092E00E94C714FE01EB5BFF4F4081518129
:1012B0006281738122E030E08EEF92E00E948E1610
:1012C00064E271E08EEF92E00E94C714CD5ADF4FC6
:1012D000488159816A817B812AE030E08EEF92E07B
:1012E0000E9489158EEF92E0DF91CF910C94D0147B
:1012F0008A599F4F61110C9431084FEF5FEFBA018B
:10130000FC0142835383648375830895CF93DF93F5
:10131000EC018A599F4FDC01ED91FC910084F1852D
:10132000E02D099561E06827CE01DF91CF910C9403
:101330007809CF93DF93EC01C059DF4F8881998101
:101340000E94F50140E060E0888199810E94FC01E3
:1013500066E271E0888199810E94C71441E060E0F3
:10136000888199810E94FC0167E371E088819981FD
:10137000DF91CF910C94C714CF93DF93EC01FC0164
:10138000E059FF4F20E042E060E1808191810E94BE
:101390001602CE010E949909CA59DF4F48EB5BE063
:1013A00060E070E04E835F8368877987DF91CF913B
:1013B00008950F931F93CF93DF938C01EC01C059D5
:1013C000DF4F888199810E94F50140E060E08881CB
:1013D00099810E94FC0163E471E0888199810E94F7
:1013E000C714F801ED59FF4F8081843091F038F433
:1013F000823061F0833031F565E571E01FC08530E2
:10140000D9F08630F9F46BE671E018C06DE471E054
:1014100002C06DE571E0888199810E94C7148881BE
:101420009981DC01ED91FC910190F081E02D6FED4F
:10143000099563E571E002C063E671E088819981F6
:101440000E94C71441E060E0888199810E94FC01FC
:1014500063E771E0888199810E94C714F801EB5B12
:10146000FF4F408151816281738122E030E08881A9
:101470009981DF91CF911F910F910C948E160F934C
:101480001F93CF93DF938C01EC01C059DF4F88810C
:1014900099810E94F50140E060E0888199810E9475
:1014A000FC016DE771E0888199810E94C71441E0D9
:1014B00060E0888199810E94FC0163E871E0888185
:1014C00099810E94C714F801EC59FF4F4AE050E09F
:1014D000608188819981DF91CF911F910F910C9448
:1014E00096158F929F92AF92BF92CF92DF92EF921A
:1014F000FF920F931F93CF93DF93EC014A015B019F
:10150000CB01BA010E9467176B017C018B0120E0BF
:1015100030E040E251E4C501B4010E9449180E9444
:1015200067174AE04C9D90014D9D300D11245B01E1
:10153000A21AB30AC059DF4F0436110578F40A30F5
:10154000110530F060E3888199810E94C91406C0BA
:1015500060E971E0888199810E94C7144AE050E0F7
:10156000B601888199810E949D156EE288819981DA
:101570000E94C9144AE050E0B50188819981DF9149
:10158000CF911F910F91FF90EF90DF90CF90BF9080
:10159000AF909F908F900C949D150F931F93CF93B6
:1015A000DF938C01EC01C059DF4F888199810E9443
:1015B000F50140E060E0888199810E94FC0163E9C7
:1015C00071E0888199810E94C714F801E55AFF4FA4
:1015D0004081518162817381C8010E94710A8881B2
:1015E0009981DC01ED91FC910190F081E02D6FED8E
:1015F000099563E571E0888199810E94C71441E0F3
:1016000060E0888199810E94FC016AE971E088812B
:1016100099810E94C714F801EF5BFF4F408151810F
:1016200062817381C8010E94710A88819981DC01FD
:10163000ED91FC910190F081E02D6FED099563E54E
:1016400071E088819981DF91CF911F910F910C9466
:10165000C7144F925F926F927F928F929F92AF9238
:10166000BF92CF92DF92EF92FF92CF93DF93EC0184
:10167000CB01BA0128EE33E040E050E00E94B01800
:1016800049015A01CA01B90120E13EE040E050E0C1
:101690000E94B01829013A01C501B4012CE330E0E1
:1016A00040E050E00E94B01869017A01ACE3B0E07C
:1016B000A30192010E94D818C61AD70AE80AF90AAB
:1016C000A0E1BEE00E94D818861A970AA80AB90AB3
:1016D000ACE3B0E0A70196010E94D818861A970AD9
:1016E000A80AB90AC059DF4F2AE030E0B301A201CD
:1016F000888199810E9489156AE3888199810E9475
:10170000C914888199812AE0C216D104E104F10448
:1017100028F02AE030E0B701A60109C060E30E948A
:10172000C9142AE030E0B701A601888199810E949E
:1017300089156AE3888199810E94C91488819981F9
:101740002AE082169104A104B10428F02AE030E0D6
:10175000B501A40109C060E30E94C9142AE030E089
:10176000B501A40188819981DF91CF91FF90EF901D
:10177000DF90CF90BF90AF909F908F907F906F90B1
:101780005F904F900C948915CF92DF92EF92FF9269
:101790000F931F93CF93DF93EC017C0100E7E00EE2
:1017A000F11CF701808191810E94F50140E060E029
:1017B000F701808191810E94FC0161EA71E0F701EB
:1017C000808191810E94C7140E942F11AB01BC013E
:1017D000FE01E15BFF4F80819181A281B381481BB3
:1017E000590B6A0B7B0BCE010E94290B41E060E094
:1017F000F701808191810E94FC016BEA71E0F701A1
:10180000808191810E94C714FE01ED5AFF4FC08074
:10181000D180E280F3800E942F1197018601061B80
:10182000170B280B390BB901A801CE01DF91CF911D
:101830001F910F91FF90EF90DF90CF900C94290BA8
:101840000F931F93CF93DF93EC018C0100591F4F2F
:10185000D8018D919C910E94F50140E060E0F80173
:10186000808191810E94FC0165EB71E0D8018D912E
:101870009C910E94C714FE01E55AFF4F408151819F
:1018800062817381CE010E94710AF8018081918189
:10189000DC01ED91FC910190F081E02D6FED099557
:1018A00063E571E0F801808191810E94C71441E0F5
:1018B00060E0D8018D919C910E94FC016FEB71E07A
:1018C000F801808191810E94C714DE01AD5ABF4F9B
:1018D000FE01E15BFF4F4D915D916D917C91008127
:1018E000118122813381401B510B620B730BCE019E
:1018F000DF91CF911F910F910C94290BFC01EB59B3
:10190000FF4F2081223081F028F4222349F021303A
:1019100049F00895243061F048F0253059F00895D9
:101920000C9499090C94CD0A0C94C40B0C94D9090D
:101930000C94200C0C943F0A0F931F93CF93DF93CA
:101940008C01EC01CB59DF4F88818150833098F4B2
:10195000C8018A599F4F0E9431088881813011F453
:1019600083E001C081508883C801DF91CF911F912E
:101970000F910C947E0CDF91CF911F910F910895E0
:101980000F931F93CF93DF938C01EC01CB59DF4F63
:1019900088818150833098F4C8018A599F4F0E94F2
:1019A00031088881833011F481E001C08F5F888322
:1019B000C801DF91CF911F910F910C947E0CDF91A4
:1019C000CF911F910F910895CF93DF93EC01862F54
:1019D00021EF31E0398328836A8B61E00E94F511A1
:1019E00060E08A890E942E12CE01DF91CF910C9483
:1019F000A8080F931F93FC0142875387648775875C
:101A000006871787208B318B1F910F910895CF92F6
:101A1000DF92EF92FF92CF93DF93EC016A017B019B
:101A20004FEF5FEFBA014A835B836C837D830E9433
:101A30002F116C0D7D1D8E1D9F1D6E837F838887EA
:101A400099871E861F86188A198A1A861B861C8605
:101A50001D8661E08A89DF91CF91FF90EF90DF9042
:101A6000CF900C942E12CF92DF92EF92FF920F93B1
:101A70001F93CF93DF93EC010E942F110A811B81EA
:101A80002C813D81061717072807390768F4CA8497
:101A9000DB84EC84FD84C00ED11EE21EF31ECA82DC
:101AA000DB82EC82FD82EACFDF91CF911F910F9113
:101AB000FF90EF90DF90CF9008950F931F93CF93F7
:101AC000DF93EC010E942F110A811B812C813D8143
:101AD000601771078207930748F061E08A890E94C6
:101AE0002E12CE010E94330D81E020C00E942F11E2
:101AF0000E811F812885398560177107820793073A
:101B0000A0F060E08A890E942E124E855F85688968
:101B100079898A819B81AC81BD81480F591F6A1FD9
:101B20007B1F4E835F836887798780E0DF91CF9149
:101B30001F910F910895FC016487611108C04FEF58
:101B40005FEFBA01428353836483758313860895DC
:101B5000CF93DF93EC01862F1A821B821C821D8299
:101B60001E821F82188619862DEC31E03983288366
:101B70006A8762E00E94F5116C85CE010E949B0D80
:101B80001B86DF91CF9108951F93CF93DF93EC01D4
:101B90008A850E946412892BC1F41C858B851123D0
:101BA00071F0882331F0CE01DF91CF911F910C9419
:101BB0006D08CE010E94310881E08B8708C0811139
:101BC00006C081E08B8711E002C01B8610E0812FE8
:101BD000DF91CF911F910895CF93DF93EC010E9485
:101BE0000E06CE018A599F4F0E943108CB59DF4F14
:101BF00083E08883DF91CF910895CF93DF93EC0149
:101C00000E94E607882301F1FE01ED59FF4F808114
:101C1000863041F08A3099F485E0FE01EB59FF4FA0
:101C200080830DC084E0FE01EB59FF4F80834FEFAE
:101C30005FEFBA0131964283538364837583CE018B
:101C40000E947E0C81E00BC0CE018A599F4F0E94FA
:101C50006D08882319F0CE010E94C00C80E0DF914E
:101C6000CF910895CF93DF93EC010E940A04CA59E3
:101C7000DF4F4FEF5FEFBA014A835B836C837D8355
:101C8000DF91CF9108952F923F924F925F926F9282
:101C90007F928F929F92AF92BF92CF92DF92EF92FC
:101CA000FF920F931F93CF93DF9300D000D0CDB757
:101CB000DEB71C01DC011E962D913C911F97D901C6
:101CC0008D919D910D90BC91A02D89839A83AB83BA
:101CD000BC83F10100891189D8018D909D90AD9050
:101CE000BC90C0A0D1A0E2A0F3A042805380648049
:101CF000758077FA709477F87094A70196016981DE
:101D00007A818B819C810E9491169B01AC01C30159
:101D1000B2010E9449182B013C01D1015296ED916C
:101D2000FC91539729813A814B815C81608171815B
:101D3000828193810E949116F1012681378140852D
:101D400051850E9449189B01AC01C301B2010E9458
:101D500092162B013C01A7019601C701B6010E9412
:101D600092169B01AC0169817A818B819C810E94D2
:101D70009116D10194962D913D914D915C9197973B
:101D80000E949216F10122853385448555850E9473
:101D900049189B01AC01C301B2010E9491169B013D
:101DA000AC01C501B4010E9492164B015C01D10146
:101DB0005C96CC905C975D96DC905D975E96EC901F
:101DC0005E975F96FC909601A7010E944518181631
:101DD00014F064017501F101808C918CA28CB38C9C
:101DE0009401A501B601C7010E94F61687FD02C045
:101DF00046015701C401D501F80180839183A28374
:101E0000B383F10180A191A1A2A1B3A184A395A361
:101E1000A6A3B7A389819A81AB81BC8180A391A33A
:101E2000A2A3B3A30F900F900F900F90DF91CF91CB
:101E30001F910F91FF90EF90DF90CF90BF90AF90E8
:101E40009F908F907F906F905F904F903F902F90DA
:101E50000895FC0110A211A212A213A214A215A2AD
:101E600016A217A208952F923F924F925F926F92FF
:101E70007F928F929F92AF92BF92CF92DF92EF921A
:101E8000FF920F931F93CF93DF9300D000D0CDB775
:101E9000DEB71C0149835A836B837C834801590157
:101EA00020E030E0A90169817A818B819C810E94C8
:101EB000F61687FD44C020E030E0A901C501B40159
:101EC0000E94F61687FD3BC020E030E0A901C70163
:101ED000B6010E94F61687FD32C0D10154966D916D
:101EE0007D918D919C9157970E94931720E030E04F
:101EF0004AE754E40E94FA162B013C0189819A8139
:101F0000AB81BC81F10182839383A483B583A30158
:101F10009201C501B4010E944918D10116966D9332
:101F20007D938D939C931997A3019201C701B601EC
:101F30000E94FA16F10162877387848795870F9054
:101F40000F900F900F90DF91CF911F910F91FF9005
:101F5000EF90DF90CF90BF90AF909F908F907F9049
:101F60006F905F904F903F902F9008954F925F92A7
:101F70006F927F928F929F92AF92BF92CF92DF9299
:101F8000EF92FF920F931F93CF93DF93EC016A01BF
:101F90007B0148015901A9019801C701B6010E94BE
:101FA000451887FF28C0C88ED98EEA8EFB8E8C8E8E
:101FB0009D8EAE8EBF8E0888D989C02D48805980ED
:101FC0006A807B80A5019401C301B2010E9445187B
:101FD00018162CF488829982AA82BB820CC0A701B1
:101FE0009601C301B2010E94F61687FF04C0C882A1
:101FF000D982EA82FB82DF91CF911F910F91FF90EE
:10200000EF90DF90CF90BF90AF909F908F907F9098
:102010006F905F904F9008954F925F926F927F9272
:102020008F929F92AF92BF92CF92DF92EF92FF92E8
:102030000F931F93CF93DF9300D000D0CDB7DEB7BF
:102040004C0127013801A982BA82CB82DC828FEF52
:1020500091E0F4019183808377876687518B408B71
:10206000338B228B00E010E02FE733E440E050E0B8
:10207000BA01C4010E94B60F84E690E0A0E0B0E08F
:10208000F401848B958BA68BB78BCF88D88CE98C89
:10209000FA8C09811A812B813C81B301A201C40110
:1020A0000E94330F0F900F900F900F90DF91CF9100
:1020B0001F910F91FF90EF90DF90CF90BF90AF9066
:1020C0009F908F907F906F905F904F9008958F9228
:1020D0009F92AF92BF92CF92DF92EF92FF92CF93F7
:1020E000DF93EC0116161706ACF56B01EE24D7FC56
:1020F000E094FE2CC701B6010E9495174B015C01CC
:102100006C897D898E899F890E9493179B01AC0100
:10211000C501B4010E94FA164B015C019B01AC01A0
:102120006E817F81888599850E9449186E837F839F
:1021300088879987A50194016A857B858C859D8513
:102140000E94FA166A877B878C879D87CC8ADD8AF6
:10215000EE8AFF8ADF91CF91FF90EF90DF90CF90D2
:10216000BF90AF909F908F9008958F929F92AF9263
:10217000BF92CF92DF92EF92FF920F931F93CF9374
:10218000DF93CDB7DEB74C018F859889E989FA894D
:10219000FF93EF939F938F93C4010E940C1087E0ED
:1021A00092E0F401918380830F900F900F900F9035
:1021B000DF91CF911F910F91FF90EF90DF90CF9023
:1021C000BF90AF909F908F9008951F920F920FB67F
:1021D0000F9211242F933F938F939F93AF93BF93AD
:1021E0008091F6029091F702A091F802B091F90265
:1021F0003091F50223E0230F2D3720F40196A11D25
:10220000B11D05C026E8230F0296A11DB11D209324
:10221000F5028093F6029093F702A093F802B09330
:10222000F9028091FA029091FB02A091FC02B09118
:10223000FD020196A11DB11D8093FA029093FB024D
:10224000A093FC02B093FD02BF91AF919F918F913B
:102250003F912F910F900FBE0F901F9018952FB7A1
:10226000F8946091F6027091F7028091F8029091D3
:10227000F9022FBF08953FB7F8948091FA02909128
:10228000FB02A091FC02B091FD0226B5A89B05C0FF
:102290002F3F19F00196A11DB11D3FBF6627782F72
:1022A000892F9A2F620F711D811D911D42E0660FCB
:1022B000771F881F991F4A95D1F70895CF92DF9213
:1022C000EF92FF92CF93DF936B017C010E943B1151
:1022D000EB01C114D104E104F10489F00E949016CD
:1022E0000E943B116C1B7D0B683E734090F381E0B4
:1022F000C81AD108E108F108C851DC4FEACFDF91D4
:10230000CF91FF90EF90DF90CF90089582309105AC
:1023100038F0880F991F880F991F05970197F1F7DB
:102320000895789484B5826084BD84B5816084BD4D
:1023300085B5826085BD85B5816085BDEEE6F0E03E
:10234000808181608083E1E8F0E01082808182609A
:102350008083808181608083E0E8F0E0808181601B
:102360008083E1EBF0E0808184608083E0EBF0E04B
:10237000808181608083EAE7F0E0808184608083EF
:102380008081826080838081816080838081806899
:1023900080831092C1000895833081F028F4813049
:1023A00099F08230A1F008958730A9F08830B9F013
:1023B0008430D1F4809180008F7D03C080918000B3
:1023C0008F7780938000089584B58F7702C084B59D
:1023D0008F7D84BD08958091B0008F7703C0809178
:1023E000B0008F7D8093B0000895CF93DF9390E08D
:1023F000FC01E657FF4F2491FC01E256FF4F849108
:10240000882349F190E0880F991FFC01EA53FF4FA0
:10241000A591B49184549F4FFC01C591D4919FB76D
:10242000611108C0F8948C91209582238C93888147
:1024300082230AC0623051F4F8948C91322F309587
:1024400083238C938881822B888304C0F8948C9199
:10245000822B8C939FBFDF91CF9108950F931F9391
:10246000CF93DF931F92CDB7DEB7282F30E0F9016D
:10247000EA58FF4F8491F901E657FF4F1491F90193
:10248000E256FF4F04910023C9F0882321F06983AD
:102490000E94CC116981E02FF0E0EE0FFF1FE454A1
:1024A000FF4FA591B4919FB7F8948C91611103C02F
:1024B0001095812301C0812B8C939FBF0F90DF91DA
:1024C000CF911F910F910895CF93DF93282F30E084
:1024D000F901EA58FF4F8491F901E657FF4FD49173
:1024E000F901E256FF4FC491CC2391F081110E9473
:1024F000CC11EC2FF0E0EE0FFF1FEE54FF4FA59133
:10250000B4912C912D2381E090E021F480E002C071
:1025100080E090E0DF91CF9108950E94F218FC01D5
:10252000818D228D90E0805C9F4F821B91098F737B
:1025300099270895FC01918D828D981731F0828D35
:10254000E80FF11D858D90E008958FEF9FEF0895BE
:10255000FC01918D828D981761F0828DDF01A80FAB
:10256000B11D5D968C91928D9F5F9F73928F90E0CD
:1025700008958FEF9FEF08958CE294E1892B49F045
:1025800080E090E0892B29F00E942C1481110C949A
:1025900000000895FC01848DDF01A80FB11DA35A2E
:1025A000BF4F2C91848D90E001968F739927848F73
:1025B000A689B7892C93A089B1898C9180648C936A
:1025C000938D848D981306C00288F389E02D808155
:1025D0008F7D80830895CF93DF93EC01888D8823CE
:1025E000C9F0EA89FB89808185FD05C0A889B98980
:1025F0008C9186FD0FC00FB607FCF5CF808185FF5B
:10260000F2CFA889B9898C9185FFEDCFCE010E94C8
:10261000CA12E7CFDF91CF910895CF92DF92FF9258
:102620000F931F93CF93DF931F92CDB7DEB76C014B
:1026300081E0D60158968C9358975B969C915B9756
:102640005C968C915C97981307C05096ED91FC9125
:102650005197808185FD2EC0F601038D10E00F5F3C
:102660001F4F0F731127F02EF601848DF81211C041
:102670000FB607FCF9CFD6015096ED91FC9151971A
:10268000808185FFF1CFC60169830E94CA126981EA
:10269000EBCF838DE80FF11DE35AFF4F6083D60126
:1026A0005B960C935B975296ED91FC9153978081CA
:1026B00080620CC0D6015696ED91FC9157976083CD
:1026C0005096ED91FC91519780818064808381E0E8
:1026D00090E00F90DF91CF911F910F91FF90DF90CD
:1026E000CF900895BF92CF92DF92EF92FF92CF9357
:1026F000DF93EC016A017B01B22EE889F98982E05F
:102700008083411581EE580761057105A1F060E0F5
:1027100079E08DE390E0A70196010E94B018215066
:102720003109410951095695479537952795211546
:1027300080E1380798F0E889F989108260E874E848
:102740008EE190E0A70196010E94B0182150310956
:10275000410951095695479537952795EC85FD8593
:102760003083EE85FF852083188EEC89FD89B08249
:10277000EA89FB89808180618083EA89FB89808185
:1027800088608083EA89FB89808180688083EA8908
:10279000FB8980818F7D8083DF91CF91FF90EF90C7
:1027A000DF90CF90BF9008951F920F920FB60F92B7
:1027B00011242F938F939F93EF93FF93E0910E0338
:1027C000F0910F038081E0911403F091150382FDD5
:1027D00012C09081809117038F5F8F73209118032F
:1027E000821751F0E0911703F0E0E250FD4F958F12
:1027F0008093170301C08081FF91EF919F918F918A
:102800002F910F900FBE0F901F9018951F920F924F
:102810000FB60F9211242F933F934F935F936F93B3
:102820007F938F939F93AF93BF93EF93FF938EEF1D
:1028300092E00E94CA12FF91EF91BF91AF919F91D8
:102840008F917F916F915F914F913F912F910F9059
:102850000FBE0F901F9018958EEF92E00E948F127E
:1028600021E0892B09F420E0822F089510920103C2
:102870001092000388EE93E0A0E0B0E080930203A2
:1028800090930303A0930403B09305038FE092E0B9
:102890009093FF028093FE0285EC90E090930B03EF
:1028A00080930A0384EC90E090930D0380930C03D3
:1028B00080EC90E090930F0380930E0381EC90E006
:1028C000909311038093100382EC90E09093130394
:1028D0008093120386EC90E0909315038093140389
:1028E00010921703109218031092190310921A03F2
:1028F000089508950E9491110E9479140E94D100B8
:10290000CCEBD2E10E94F0002097E1F30E94BC12D0
:10291000F9CFCF92DF92EF92FF920F931F93CF9355
:10292000DF937C016A01EB0100E010E00C151D054E
:1029300071F06991D701ED91FC910190F081E02D4A
:10294000C7010995892B19F00F5F1F4FEFCFC80101
:10295000DF91CF911F910F91FF90EF90DF90CF907B
:1029600008956115710581F0DB010D900020E9F7F4
:10297000AD0141505109461B570BDC01ED91FC9113
:102980000280F381E02D099480E090E008950C949A
:10299000B114DC01ED91FC910190F081E02D0994DE
:1029A0006BE172E00C94B1140F931F93CF93DF93FC
:1029B000EC010E94B1148C01CE010E94D014800F52
:1029C000911FDF91CF911F910F9108958F929F9248
:1029D000AF92BF92CF92DF92EF92FF920F931F932D
:1029E000CF93DF93CDB7DEB7A1970FB6F894DEBFD4
:1029F0000FBECDBF7C01C42EE52FCB01D22E19A274
:102A000021E02D1510F02AE0D22E8E010F5D1F4F10
:102A10008D2C912CA12CB12C6C2D7E2FA501940115
:102A20000E94B0188C2DD29E8019112401501109DA
:102A30008A3014F4805D01C0895CF801808321151F
:102A400031054105510521F0C22EE32FCA01E4CF23
:102A5000B801C7010E94B114A1960FB6F894DEBF69
:102A60000FBECDBFDF91CF911F910F91FF90EF90DF
:102A7000DF90CF90BF90AF909F908F900895CF92AE
:102A8000DF92EF92FF920F931F93CF93DF93EC01AE
:102A90006A017B012115310579F4E881F981019002
:102AA000F081E02D642FDF91CF911F910F91FF9066
:102AB000EF90DF90CF9009942A303105E9F477FF49
:102AC0001AC06DE20E94C9148C0144275527BA012F
:102AD0004C195D096E097F092AE0CE010E94E614B7
:102AE000800F911FDF91CF911F910F91FF90EF9079
:102AF000DF90CF9008952AE0B701A601CE01DF91C3
:102B0000CF911F910F91FF90EF90DF90CF900C9499
:102B1000E6142115310541F4DC01ED91FC910190A1
:102B2000F081E02D642F09940C94E6149A01462F4D
:102B300050E060E070E00C9489159A01AB0160E010
:102B400070E00C9489154F925F926F927F928F92F2
:102B50009F92AF92BF92CF92DF92EF92FF920F932C
:102B60001F93CF93DF93EC016A017B01B22E9A0190
:102B7000AB01C701B6010E94AC18882319F06EE1C1
:102B800072E027C026013701E89477F82FEF3FEF76
:102B90004FE75FE7C301B2010E94AC1881110DC07D
:102BA0002FEF3FEF4FE75FE7C301B2010E94F61638
:102BB00018161CF462E272E00CC02FEF3FEF4FE7F3
:102BC0005FE4C701B6010E9445181816ACF466E22E
:102BD00072E0CE01DF91CF911F910F91FF90EF90A6
:102BE000DF90CF90BF90AF909F908F907F906F902D
:102BF0005F904F900C94B1142FEF3FEF4FE75FECD5
:102C0000C701B6010E94F61687FDE1CF20E030E053
:102C1000A901C701B6010E94F61687FF0AC06DE23E
:102C2000CE010E94C9148C01F7FAF094F7F8F094E1
:102C300002C000E010E0A12C60E070E080E09FE3C3
:102C4000AB1441F020E030E040E251E40E94FA167B
:102C5000A394F6CF9B01AC01C701B6010E94921666
:102C60006B017C010E9467172B013C010E949317A6
:102C70009B01AC01C701B6010E9491166B017C015A
:102C80002AE0B301A201CE010E94E614080F191F29
:102C9000BB2039F06AE272E0CE010E94B114080F45
:102CA000191F7B2C772041F120E030E040E251E415
:102CB000C701B6010E9449186B017C010E9462178E
:102CC0004B01AA2497FCA094BA2C2AE030E0B5016D
:102CD000A401CE010E943F15080F191FC501B401C0
:102CE0000E9495179B01AC01C701B6010E94911685
:102CF0006B017C017A94D6CFC801DF91CF911F91EF
:102D00000F91FF90EF90DF90CF90BF90AF909F908A
:102D10008F907F906F905F904F9008950C94A315C3
:102D200008955058BB27AA270ED075C166D130F040
:102D30006BD120F031F49F3F11F41EF45BC10EF40F
:102D4000E095E7FB51C1E92F77D180F3BA1762070D
:102D500073078407950718F071F49EF58FC10EF480
:102D6000E0950B2EBA2FA02D0B01B90190010C019B
:102D7000CA01A0011124FF27591B99F0593F50F4B3
:102D8000503E68F11A16F040A22F232F342F44270B
:102D9000585FF3CF469537952795A795F040539503
:102DA000C9F77EF41F16BA0B620B730B840BBAF0D3
:102DB0009150A1F0FF0FBB1F661F771F881FC2F73E
:102DC0000EC0BA0F621F731F841F48F48795779552
:102DD0006795B795F7959E3F08F0B3CF9395880F09
:102DE00008F09927EE0F979587950895D9D008F4A4
:102DF00081E008950CD00FC107D140F0FED030F033
:102E000021F45F3F19F0F0C0511139C1F3C014D162
:102E100098F39923C9F35523B1F3951B550BBB27A1
:102E2000AA2762177307840738F09F5F5F4F220F4E
:102E3000331F441FAA1FA9F333D00E2E3AF0E0E847
:102E400030D091505040E695001CCAF729D0FE2F93
:102E500027D0660F771F881FBB1F26173707480725
:102E6000AB07B0E809F0BB0B802DBF01FF279358DB
:102E70005F4F2AF09E3F510568F0B6C000C15F3F2A
:102E8000ECF3983EDCF3869577956795B795F795C3
:102E90009F5FC9F7880F911D9695879597F90895BB
:102EA000E1E0660F771F881FBB1F62177307840757
:102EB000BA0720F0621B730B840BBA0BEE1F88F766
:102EC000E095089504D06894B111D9C00895BCD09C
:102ED00088F09F5790F0B92F9927B751A0F0D1F003
:102EE000660F771F881F991F1AF0BA95C9F712C08D
:102EF000B13081F0C3D0B1E00895C0C0672F782F02
:102F00008827B85F39F0B93FCCF3869577956795F8
:102F1000B395D9F73EF490958095709561957F4F64
:102F20008F4F9F4F0895E89409C097FB3EF490950A
:102F30008095709561957F4F8F4F9F4F9923A9F092
:102F4000F92F96E9BB279395F69587957795679521
:102F5000B795F111F8CFFAF4BB0F11F460FF1BC065
:102F60006F5F7F4F8F4F9F4F16C0882311F096E9F8
:102F700011C0772321F09EE8872F762F05C06623A6
:102F800071F096E8862F70E060E02AF09A95660F5F
:102F9000771F881FDAF7880F9695879597F9089518
:102FA000990F0008550FAA0BE0E8FEEF161617065A
:102FB000E807F907C0F012161306E407F50798F0C2
:102FC000621B730B840B950B39F40A2661F0232BDB
:102FD000242B252B21F408950A2609F4A140A69557
:102FE0008FEF811D811D089597F99F6780E870E03C
:102FF00060E008959FEF80EC089500240A9416166F
:10300000170618060906089500240A9412161306D6
:10301000140605060895092E0394000C11F4882364
:1030200052F0BB0F40F4BF2B11F460FF04C06F5F80
:103030007F4F8F4F9F4F089557FD9058440F551F56
:1030400059F05F3F71F04795880F97FB991F61F02A
:103050009F3F79F087950895121613061406551FA1
:10306000F2CF4695F1DF08C0161617061806991F0D
:10307000F1CF86957105610508940895E894BB2702
:1030800066277727CB0197F908958ADF08F48FEF39
:1030900008950BD0C0CFB1DF28F0B6DF18F095232C
:1030A00009F0A2CFA7CF1124EACFC6DFA0F3959FE6
:1030B000D1F3950F50E0551F629FF001729FBB271F
:1030C000F00DB11D639FAA27F00DB11DAA1F649FCB
:1030D0006627B00DA11D661F829F2227B00DA11D7E
:1030E000621F739FB00DA11D621F839FA00D611D04
:1030F000221F749F3327A00D611D231F849F600D25
:10310000211D822F762F6A2F11249F5750408AF05D
:10311000E1F088234AF0EE0FFF1FBB1F661F771FE9
:10312000881F91505040A9F79E3F510570F05CCF29
:10313000A6CF5F3FECF3983EDCF3869577956795D5
:10314000B795F795E7959F5FC1F7FE2B880F911D07
:103150009695879597F9089523DF880B990B089525
:10316000A1E21A2EAA1BBB1BFD010DC0AA1FBB1F8B
:10317000EE1FFF1FA217B307E407F50720F0A21BFD
:10318000B30BE40BF50B661F771F881F991F1A946A
:1031900069F760957095809590959B01AC01BD0194
:1031A000CF010895EE0FFF1F0590F491E02D0994D3
:1031B0000E94E318A59F900DB49F900DA49F800DD1
:1031C000911D11240895A29FB001B39FC001A39F38
:1031D000700D811D1124911DB29F700D811D112450
:1031E000911D089581E090E0F8940C94F718F894FC
:0231F000FFCF0F
:1031F20000000000D5028914000000005A047D037B
:10320200EF0398036F0300000000E6070E060A04AE
:10321200D2036F03090048454C4C4F2031323334FE
:1032220035363738393000534554555020535441C0
:10323200525400535441545553203A2000546F20A5
:1032420038300043004B65657020383000546F31D0
:103252003330004B65657031333000434F4F4C497A
:103262004E47004F5554505554203A200045525273
:103272004F52004552524F52434F4445203A20008C
:103282003030004E4F57203A2000544F20203A2031
:1032920000454C41505345203A200052454D41498A
:1032A2004E203A2000434F4F4C494E4720200052B7
:1032B2004553554C54203A2000000000006D08315F
:1032C20008220869036F032B0800000000A508000C
:1032D200000000FD0DEC0D320ED2036F0300000062
:1032E200005D0D4908A80869036F03000000008D06
:1032F200128D1200000000430E290F000000000D85
:103302001389148F12A8129A12EB120D0A006E6121
:0C3312006E00696E66006F7666002E008B
:00000001FF
